:1000000072C000009FC000009DC000009BC00000A7
:1000100099C0000097C0000095C0000093C0000088
:1000200091C000008FC000008DC000008BC0000098
:1000300089C0000087C0000085C0000083C00000A8
:1000400081C000007FC000007DC000007BC00000B8
:1000500079C0000077C0000075C000000CC300002C
:1000600071C00000DAC30000AFC300006BC0000025
:1000700069C0000067C0000065C0000063C00000E8
:1000800061C000005FC000005DC000005BC00000F8
:1000900065C300003AC3000055C0000053C0000013
:1000A00051C000004FC000004DC000004BC0000018
:1000B00049C0000047C0000045C0000043C0000028
:1000C00041C000003FC000003DC000003BC0000038
:1000D00039C0000037C0000035C0000033C0000048
:1000E00031C00000430411241FBECFEFD1E2DEBFB8
:1000F000CDBF00E00CBF24E0A6EFB2E001C01D922E
:10010000A334B207E1F712E0A0E0B2E0E6ECF2E1DE
:1001100000E00BBF02C007900D92A63FB107D9F7D0
:1001200010E0C3E7D0E000E005C021970109802F6F
:10013000FE018DD7C237D10780E00807B1F7F6D3AB
:100140000C9461095DCFCF92DF92EF92FF920F93F3
:100150001F93CF93DF936C017A018B01C0E0D0E055
:10016000CE15DF0581F0D8016D918D01D601ED919D
:10017000FC910190F081E02DC6011995892B11F0B9
:100180002196EECF7E01C701DF91CF911F910F9194
:10019000FF90EF90DF90CF900895089580E090E079
:1001A0000895FC01538D448D252F30E0842F90E07D
:1001B000821B930B541710F0CF9608950197089562
:1001C000FC01918D828D981761F0828DDF01A80F5F
:1001D000B11D5D968C91928D9F5F9F73928F90E081
:1001E00008958FEF9FEF0895FC01918D828D9817F0
:1001F00031F0828DE80FF11D858D90E008958FEF2D
:100200009FEF0895FC01918D228D892F90E0805CF5
:100210009F4F821B91098F739927089585E093E082
:10022000F1DF21E0892B09F420E0822F089582EA92
:1002300093E0E8DF21E0892B09F420E0822F089584
:10024000FC01848DDF01A80FB11DA35ABF4F2C9173
:10025000848D90E001968F739927848FA689B78942
:100260002C93A089B1898C91837080648C93938D39
:10027000848D981306C00288F389E02D80818F7DDC
:1002800080830895EF92FF920F931F93CF93DF9394
:10029000EC0181E0888F9B8D8C8D981305C0E889D7
:1002A000F989808185FD25C0F62E0B8D10E00F5F4A
:1002B0001F4F0F731127E02E8C8DE8120BC00FB665
:1002C00007FCFACFE889F989808185FFF5CFCE0157
:1002D000B7DFF2CF8B8DFE01E80FF11DE35AFF4F20
:1002E000F0829FB7F8940B8FEA89FB898081806246
:1002F0000AC09FB7F894EE89FF896083E889F9897D
:1003000080818370806480839FBF81E090E0DF9173
:10031000CF911F910F91FF90EF900895CF93DF93AE
:10032000EC01888D8823C1F0EA89FB89808185FDF5
:1003300005C0A889B9898C9186FD0EC00FB607FC4F
:10034000F5CF808185FFF2CFA889B9898C9185FF8F
:10035000EDCFCE0175DFE8CFDF91CF91089580E03A
:1003600090E0892B19F063DF811120C080E090E0DC
:10037000892B19F053DF81111CC080E090E0892B9C
:1003800041F080E090E0892B21F00E940000811173
:1003900013C080E090E0892BA1F080E090E0892BF1
:1003A00081F00E94000081110AC008950E9400009F
:1003B000DDCF0E940000E1CF0E940000EACF0C9444
:1003C000000008956115710549F0FB0101900020BE
:1003D000E9F73197AF01461B570BB5CE80E090E0AF
:1003E00008958F929F92AF92BF92EF92FF920F93D8
:1003F0001F93CF93DF93CDB7DEB7A1970FB6F894D5
:10040000DEBF0FBECDBF7C01FA01CB0119A22230A5
:1004100008F42AE08E010F5D1F4F822E912CA12C33
:10042000B12CBF01A5019401F0D5F901CA01015019
:1004300011096A3014F4605D01C0695CD8016C93E5
:10044000232B242B252B69F7B801C701BBDFA1960D
:100450000FB6F894DEBF0FBECDBFDF91CF911F91D5
:100460000F91FF90EF90BF90AF909F908F90089565
:10047000CF93DF93009739F0FC01D581C68187D6F1
:100480008D2F9C2FF7CFDF91CF910895CB01F0DF17
:1004900068E172E085E093E095DF65E272E085E077
:1004A00093E090DF80E090E008956F927F928F92CA
:1004B0009F92AF92BF92CF92DF92EF92FF920F93F3
:1004C0001F93CF93DF93EC015A013901613071051D
:1004D00019F48A849B8401C04C018114910439F47D
:1004E0008EE090E0BCD5FC019B878A8712C0D401C6
:1004F00018968D919C911997009711F04C01F7CFA8
:100500008EE090E0ACD5FC01D40119969C938E93BB
:1005100018971186108613861286B182A082738284
:10052000628215830483F782E682D586C486CF0172
:10053000DF91CF911F910F91FF90EF90DF90CF90BF
:10054000BF90AF909F908F907F906F900895A8D6A6
:10055000CF92DF92EF92FF920F931F93CF93DF938F
:10056000FC018B01C281D381209779F488E090E06F
:1005700076D5EC011982188288E292E09B838A8307
:1005800088E090E09D838C8308C08E819F81938357
:100590008283892B11F415821482C880D9800D2C96
:1005A000000CEE08FF08F7FE0DC06DE282EA93E052
:1005B00069DE44275527BA014C195D096E097F0988
:1005C0002AE003C02AE0B701A60182EA93E009DF2E
:1005D00061E372E082EA93E0F5DE4C815D816A813D
:1005E0007B8182EA93E0AFDD62E372E082EA93E02E
:1005F000E9DE65E272E082EA93E0E4DEC80138DF1A
:1006000080E090E0DF91CF911F910F91FF90EF90EC
:10061000DF90CF900895CF93DF93EB0164E372E016
:1006200085E093E0CFDE2AE04EE650E060E070E047
:1006300085E093E0D6DE6EE285E093E023DE2AE0FB
:1006400041E050E060E070E085E093E0CADE2AE03F
:1006500042E050E060E070E085E093E0C2DE65E2F9
:1006600072E085E093E0AEDECE0102DF80E090E054
:10067000DF91CF9108951F920F920FB60F92112420
:100680002F933F938F939F93AF93BF9380910103D9
:1006900090910203A0910303B091040330910003F1
:1006A00023E0230F2D3720F40196A11DB11D05C0B5
:1006B00026E8230F0296A11DB11D2093000380930D
:1006C000010390930203A0930303B093040380916A
:1006D000FC029091FD02A091FE02B091FF020196F2
:1006E000A11DB11D8093FC029093FD02A093FE0218
:1006F000B093FF02BF91AF919F918F913F912F9146
:100700000F900FBE0F901F9018951F920F920FB66B
:100710000F9211240BB60F922F933F934F935F9339
:100720006F937F938F939F93AF93BF93EF93FF93B9
:1007300085E093E085DDFF91EF91BF91AF919F91AF
:100740008F917F916F915F914F913F912F910F907A
:100750000BBE0F900FBE0F901F9018951F920F9217
:100760000FB60F9211240BB60F922F938F939F9376
:10077000EF93FF93E0911503F09116038081E091D0
:100780001B03F0911C0382FD12C0908180911E0317
:100790008F5F8F7320911F03821751F0E0911E032A
:1007A000F0E0EB5FFC4F958F80931E0301C08081CA
:1007B000FF91EF919F918F912F910F900BBE0F9012
:1007C0000FBE0F901F9018951F920F920FB60F92A9
:1007D00011240BB60F922F933F934F935F936F9318
:1007E0007F938F939F93AF93BF93EF93FF9382EA8F
:1007F00093E026DDFF91EF91BF91AF919F918F9193
:100800007F916F915F914F913F912F910F900BBE10
:100810000F900FBE0F901F9018951F920F920FB65A
:100820000F9211240BB60F922F938F939F93EF93F8
:10083000FF93E091B203F091B3038081E091B8039C
:10084000F091B90382FD12C090818091BB038F5F4C
:100850008F732091BC03821751F0E091BB03F0E04D
:10086000EE55FC4F958F8093BB0301C08081FF91B3
:10087000EF919F918F912F910F900BBE0F900FBE14
:100880000F901F901895E5E0F3E01382128248EE76
:1008900053E060E070E044835583668377838AE0A9
:1008A00092E0918380832DEC30E0358724872CEC17
:1008B00030E03787268728EC30E0318B208B29EC1D
:1008C00030E0338B228B2AEC30E0358B248B2EECFE
:1008D00030E0378B268B118E128E138E148EE2EA47
:1008E000F3E0138212824483558366837783918376
:1008F000808385EC90E09587848784EC90E09787EF
:10090000868780EC90E0918B808B81EC90E0938BDC
:10091000828B82EC90E0958B848B86EC90E0978BB9
:10092000868B118E128E138E148E0895CF93DF93C3
:10093000CDB7DEB7C750D1400FB6F894DEBF0FBEBB
:10094000CDBF789484B5826084BD84B5816084BD58
:1009500085B5826085BD85B5816085BD80916E005D
:10096000816080936E00109281008091810082608E
:1009700080938100809181008160809381008091CB
:1009800080008160809380008091B10084608093BA
:10099000B1008091B00081608093B000809191009F
:1009A000826080939100809191008160809391009A
:1009B000809190008160809390008091A10082607E
:1009C0008093A1008091A10081608093A10080911B
:1009D000A00081608093A0008091210182608093BB
:1009E000210180912101816080932101809120016A
:1009F00081608093200180917A00846080937A00E6
:100A000080917A00826080937A0080917A00816080
:100A100080937A0080917A00806880937A001092A7
:100A2000C1008EE090E01BD3FC019093F70280930D
:100A3000F6021182108213821282158214821782AA
:100A40001682158614861186108613861286C12C8E
:100A5000D12C24E0E22EF12C02E412E026E030E07A
:100A600047E452E061E070E020DD5C0133E0E32E1A
:100A7000F12C0EE412E025E030E042E552E061E0C6
:100A800070E013DD4C0148EAC42E42E0D42E54E05D
:100A9000E52EF12C08E512E026E030E04DE552E0CD
:100AA00061E070E0C50101DD65E0E62EF12C04E6B1
:100AB00012E025E030E0A80161E070E0C401F5DC5F
:100AC0001092F9021092F8021092FB021092FA02B0
:100AD00076E4C72E72E0D72E0AE612E025E030E079
:100AE000A80160E070E08091F6029091F702DDDCF1
:100AF000C12CD12CE7E0EE2EF12C00E712E027E02C
:100B000030E0A80160E070E08091F6029091F70279
:100B1000CCDC08E712E027E030E0A80160E070E0FC
:100B20008091F6029091F702C0DC00E812E027E025
:100B300030E0A80160E070E08091F6029091F70249
:100B4000B4DC08E812E027E030E0A80160E070E0E3
:100B50008091F6029091F702A8DC00E912E027E00C
:100B600030E0A80160E070E08091F6029091F70219
:100B70009CDC08E912E027E030E0A80160E070E0CA
:100B80008091F6029091F70290DC00EA12E027E0F3
:100B900030E0A80160E070E08091F6029091F702E9
:100BA00084DCF4E0EF2EF12C08EA12E02DE030E0D6
:100BB0004DEA52E060E070E08091F6029091F70219
:100BC00074DCA3E0EA2EF12C0BEB12E02CE030E019
:100BD0004FEB52E060E070E08091F6029091F702F6
:100BE00064DCB5E0EB2EF12C0CEC12E027E030E0F9
:100BF00042ED52E060E070E08091F6029091F702E1
:100C000054DC14E0E12EF12C0AED12E026E030E095
:100C10004FED52E060E070E08091F6029091F702B3
:100C200044DC0BE0C02E03E0D02E85E0E82EF12C52
:100C300006EE12E029E030E04CEE52E060E070E0B9
:100C40008091F6029091F70230DCE0911503F0916B
:100C5000160382E08083E0911103F0911203108269
:100C6000E0911303F09114038FEC808310921D0325
:100C7000E0911903F0911A0386E08083E091170355
:100C8000F0911803808180618083E0911703F091D7
:100C90001803808188608083E0911703F091180326
:100CA000808180688083E0911703F0911803808130
:100CB0008F7D80839E012F5F3F4F29018901E12CA9
:100CC000F12C39012FB7F894809101039091020320
:100CD000A0910303B09104032FBF80930D03909361
:100CE0000E03A0930F03B093100385E093E068DA3E
:100CF00097FF25C02FB7F8948091010390910203CC
:100D0000A0910303B09104032FBF40910D035091B4
:100D10000E0360910F0370911003841B950BA60BBB
:100D2000B70B4091090350910A0360910B03709136
:100D30000C0384179507A607B707B8F20EC08A30D0
:100D4000910559F0D8018D938D01BFEFEB1AFB0A85
:100D5000E114E1E0FE0609F0B5CFEE2009F4AACFD8
:100D6000FF241701812C912CA12CB12CCE5FDE4FDA
:100D70001882C250D140CD5FDE4F1882C350D1409F
:100D8000C12CD12C970121503109CA5FDE4F398324
:100D90002883C650D140EC14FD0409F46FC0D20181
:100DA000ED912D01CF5FDE4FE883C150D140960118
:100DB0002F5F3F4FCC5FDE4F39832883C450D14033
:100DC000EA3361F0E03251F0CA5FDE4F88819981E9
:100DD000C650D140C816D90609F047C087E090E058
:100DE0003ED18C01DC011C92C301880D991D129625
:100DF0009C938E931197C6018819990914969C9318
:100E00008E93139716961C921E921597CA5FDE4F0B
:100E1000E881F981C650D140CE16DF0629F401964B
:100E200014969C938E931397A114B10431F0D501BD
:100E300016961C930E9315970AC0CE5FDE4F08835B
:100E4000C250D140CD5FDE4F1883C350D140CC5F3C
:100E5000DE4F88809980C450D140CF5FDE4FB8818B
:100E6000C150D140B03211F40BC08501CC5FDE4FD0
:100E7000C880D980C450D14058018DCF850101C0B0
:100E800016016101EFEFCE1ADE0A23014C0C5D1C46
:100E9000AA24AA94BA2C9701215031094901CE14F1
:100EA000DF04D0F53FEFA316B30649F4D2018C91CD
:100EB000082E000C990B9ED0892B09F45601F201E3
:100EC00081912F018C3219F0C814D90409F587E0FB
:100ED00090E0C5D0FC0121E02083C3018A0D9B1D59
:100EE00092838183C6018A199B0994838383168226
:100EF0001582C814D90419F4019694838383D80108
:100F00001696FC93EE9315978F01AA24AA94BA2CF7
:100F1000BFEFCB1ADB0AC3CFE090F602F090F702E6
:100F2000CE5FDE4F0881C250D140CD5FDE4F1881C9
:100F3000C350D1400115110509F4BCCEF8018081E0
:100F40008111B8CEE114F10409F4B4CED80113969E
:100F5000CD90DC901497F70182819381C816D90651
:100F600099F460817181A60111968D919C911297DF
:100F70009BD1892B49F4D80115960D911C91169798
:100F80000115110599F420C0F70186819781C816D3
:100F9000D906B1F464817581A601D80111968D91AD
:100FA0009C91129781D1892B59F4E5CFF80180816A
:100FB00081110AC0D7011A96ED90FC901B97BACF09
:100FC000F701E084F184BECFD7011C96ED91FC912E
:100FD0001D97309709F46ECECE5FDE4F6881C25008
:100FE000D140CD5FDE4F7881C350D14086EF92E093
:100FF000199560CE911106C0803219F08950855044
:10100000D0F70895992788270895A1E21A2EAA1BE0
:10101000BB1BFD010DC0AA1FBB1FEE1FFF1FA217A8
:10102000B307E407F50720F0A21BB30BE40BF50BA5
:10103000661F771F881F991F1A9469F7609570952E
:10104000809590959B01AC01BD01CF010895EE0FF5
:10105000FF1F881F8BBF0790F691E02D19940F9307
:101060001F93CF93DF938230910510F482E090E0DC
:10107000E0914104F091420420E030E0A0E0B0E0D3
:10108000309719F140815181028113814817590726
:10109000C8F08417950769F4109731F012960C93F5
:1010A000129713961C9327C0009341041093420497
:1010B00022C02115310519F04217530718F49A017F
:1010C000BD01EF01DF01F801DBCF21153105F9F09A
:1010D000281B390B2430310580F48A819B816115EE
:1010E000710521F0FB019383828304C09093420435
:1010F00080934104FE01329644C0FE01E20FF31FCB
:101100008193919322503109398328833AC02091E9
:101110003F0430914004232B41F42091020230918E
:1011200003023093400420933F0420910002309149
:1011300001022115310541F42DB73EB7409104025B
:1011400050910502241B350BE0913F04F0914004BF
:10115000E217F307A0F42E1B3F0B2817390778F08E
:10116000AC014E5F5F4F2417350748F04E0F5F1FED
:101170005093400440933F048193919302C0E0E078
:10118000F0E0CF01DF91CF911F910F910895CF93A0
:10119000DF93009709F481C0FC0132971382128219
:1011A000A0914104B0914204109781F420813181D3
:1011B000820F931F20913F04309140042817390774
:1011C00051F5F0934004E0933F0467C0ED0120E047
:1011D00030E0CE17DF0740F44A815B819E01411564
:1011E0005105F1F0EA01F5CFD383C28340815181EB
:1011F000840F951FC817D90759F488819981840FE6
:10120000951F0296918380838A819B819383828339
:101210002115310529F4F0934204E09341043DC0C7
:10122000E901FB83EA8349915991C40FD51FEC175B
:10123000FD0761F480819181840F951F0296E90179
:1012400099838883828193819B838A83E0E0F0E0A5
:1012500012968D919C911397009719F0FD01DC0176
:10126000F7CF8D919C9111979D012E5F3F4F820F7B
:10127000931F20913F04309140042817390769F4E7
:10128000309729F4109242041092410402C0138254
:101290001282B0934004A0933F04DF91CF91089550
:1012A00081E090E0F8940DC0FB01DC0104C08D9159
:1012B0000190801921F441505040C8F7881B990BC8
:0612C0000895F894FFCF31
:1012C600000043048000000000004201A300D1009A
:1012D6008E010201E000F4004F49432C54657374FB
:1012E6002049444E000D0A004E6F206572726F72DF
:1012F600002C22006765745F707265737375726582
:101306002000535953540053595354454D004552E8
:1013160052004552524F52004552523F00455252DA
:101326004F523F004E4558543F002A49444E3F0015
:1013360056414C5645313F0056414C5645323F00CA
:1013460056414C5645333F0056414C5645343F00B6
:1013560056414C5645353F0056414C5645363F00A2
:1013660056414C5645373F005245433F0052454390
:10137600495243554C41544F523F00524543005247
:101386004543495243554C41544F5200434F4F4CED
:101396003F00434F4F4C45523F00434F4F4C004395
:1013A6004F4F4C455200505245533F005052455303
:0613B600535552453F00B3
:00000001FF
