:1000000072C000009EC000009CC000009AC00000AA
:1000100098C0000096C0000094C0000092C000008C
:1000200090C000008EC000008CC000008AC000009C
:1000300088C0000086C0000084C0000082C00000AC
:1000400080C000007EC000007CC000007AC00000BC
:1000500078C0000076C0000074C00000EBC2000051
:1000600070C00000B9C300008EC300006AC0000069
:1000700068C0000066C0000064C0000062C00000EC
:1000800060C000005EC000005CC000005AC00000FC
:1000900044C3000019C3000054C0000052C0000057
:1000A00050C000004EC000004CC000004AC000001C
:1000B00048C0000046C0000044C0000042C000002C
:1000C00040C000003EC000003CC000003AC000003C
:1000D00038C0000036C0000034C0000032C000004C
:1000E00030C00000220411241FBECFEFD1E2DEBFDA
:1000F000CDBF00E00CBF23E0A2E6B2E001C01D923C
:10010000AF3AB207E1F712E0A0E0B2E0EAE2F1E1D3
:1001100000E00BBF02C007900D92A236B107D9F7DD
:1001200010E0C3E7D0E000E005C021970109802F6F
:10013000FE01BFD6C237D10780E00807B1F7D5D39B
:10014000F2C75ECFCF92DF92EF92FF920F931F9391
:10015000CF93DF936C017A018B01C0E0D0E0CE1524
:10016000DF0581F0D8016D918D01D601ED91FC91F3
:100170000190F081E02DC6011995892B11F021968F
:10018000EECF7E01C701DF91CF911F910F91FF90BC
:10019000EF90DF90CF900895089580E090E008956B
:1001A000FC01538D448D252F30E0842F90E0821B7D
:1001B000930B541710F0CF96089501970895FC0102
:1001C000918D828D981761F0828DDF01A80FB11D8E
:1001D0005D968C91928D9F5F9F73928F90E00895B2
:1001E0008FEF9FEF0895FC01918D828D981731F06C
:1001F000828DE80FF11D858D90E008958FEF9FEFC0
:100200000895FC01918D228D892F90E0805C9F4F95
:10021000821B91098F739927089581E792E0F1DF9E
:1002200021E0892B09F420E0822F08958EE093E0ED
:10023000E8DF21E0892B09F420E0822F0895FC01FA
:10024000848DDF01A80FB11DA35ABF4F2C91848D5F
:1002500090E001968F739927848FA689B7892C9394
:10026000A089B1898C91837080648C93938D848DE7
:10027000981306C00288F389E02D80818F7D8083EA
:100280000895EF92FF920F931F93CF93DF93EC01AA
:1002900081E0888F9B8D8C8D981305C0E889F98942
:1002A000808185FD25C0F62E0B8D10E00F5F1F4F5E
:1002B0000F731127E02E8C8DE8120BC00FB607FCD0
:1002C000FACFE889F989808185FFF5CFCE01B7DFC4
:1002D000F2CF8B8DFE01E80FF11DE35AFF4FF08244
:1002E0009FB7F8940B8FEA89FB89808180620AC0EE
:1002F0009FB7F894EE89FF896083E889F989808146
:100300008370806480839FBF81E090E0DF91CF9114
:100310001F910F91FF90EF900895CF93DF93EC0121
:10032000888D8823C1F0EA89FB89808185FD05C01D
:10033000A889B9898C9186FD0EC00FB607FCF5CF50
:10034000808185FFF2CFA889B9898C9185FFEDCF97
:10035000CE0175DFE8CFDF91CF91089580E090E086
:10036000892B19F063DF811120C080E090E0892B98
:1003700019F053DF81111CC080E090E0892B41F01F
:1003800080E090E0892B21F00E940000811113C0D1
:1003900080E090E0892BA1F080E090E0892B81F053
:1003A0000E94000081110AC008950E940000DDCF64
:1003B0000E940000E1CF0E940000EACF0C940000F0
:1003C00008956115710549F0FB0101900020E9F7DE
:1003D0003197AF01461B570BB5CE80E090E00895F2
:1003E0006F927F928F929F92AF92BF92CF92DF9245
:1003F000EF92FF920F931F93CF93DF93EC015A017B
:1004000039016130710519F48A849B8401C04C0163
:100410008114910439F48EE090E053D5FC019B8760
:100420008A8712C0D40118968D919C9119970097D4
:1004300011F04C01F7CF8EE090E043D5FC01D401E0
:1004400019969C938E9318971186108613861286A0
:10045000B182A0827382628215830483F782E6826E
:10046000D586C486CF01DF91CF911F910F91FF9068
:10047000EF90DF90CF90BF90AF909F908F907F9044
:100480006F9008953FD6CF93DF93CB01009739F05B
:10049000FC01D581C681ADD58D2F9C2FF7CF68E1AA
:1004A00072E081E792E08DDF65E272E081E792E041
:1004B00088DF80E090E0DF91CF9108954F925F92C6
:1004C0006F927F92AF92BF92CF92DF92EF92FF92A4
:1004D0000F931F93CF93DF93CDB7DEB7A1970FB6DE
:1004E000F894DEBF0FBECDBFFC015B01028113811A
:1004F0000115110581F488E090E0E3D4FC0111823C
:10050000108288E292E09383828388E090E0958372
:1005100084838F010BC0D80116968D919C911797FB
:1005200093838283892B11F415821482F801C08091
:10053000D1800D2C000CEE08FF08F7FE23C06DE201
:100540008EE093E09EDE22273327A9012C193D0976
:100550004E095F0919A2CE0181967C019AE0492ECD
:10056000512C612C712CCA01B901A30192017FD4D5
:10057000605DD7016E937D0121153105410551055F
:1005800091F719C0A701960119A2FE01B1967F014A
:100590008AE0482E512C612C712CCA01B901A301AB
:1005A000920165D4605DD7016E937D0121153105FF
:1005B0004105510591F7B7018EE093E002DF61E359
:1005C00072E08EE093E0FDDEF801448155816281A6
:1005D00073818EE093E0B6DD62E372E08EE093E03B
:1005E000F0DE65E272E08EE093E0EBDEA114B10490
:1005F00051F0D50115960C91159716961C91C501D1
:10060000F8D45801F3CF80E090E0A1960FB6F894AB
:10061000DEBF0FBECDBFDF91CF911F910F91FF9035
:10062000EF90DF90CF90BF90AF907F906F905F90F2
:100630004F9008951F920F920FB60F9211242F938F
:100640003F938F939F93AF93BF9380916D0290914F
:100650006E02A0916F02B091700230916C0223E0A3
:10066000230F2D3720F40196A11DB11D05C026E8EA
:10067000230F0296A11DB11D20936C0280936D0281
:1006800090936E02A0936F02B09370028091680203
:1006900090916902A0916A02B0916B020196A11D2E
:1006A000B11D8093680290936902A0936A02B0938F
:1006B0006B02BF91AF919F918F913F912F910F90BE
:1006C0000FBE0F901F9018951F920F920FB60F92AA
:1006D00011240BB60F922F933F934F935F936F9319
:1006E0007F938F939F93AF93BF93EF93FF9381E794
:1006F00092E0A5DDFF91EF91BF91AF919F918F9116
:100700007F916F915F914F913F912F910F900BBE11
:100710000F900FBE0F901F9018951F920F920FB65B
:100720000F9211240BB60F922F938F939F93EF93F9
:10073000FF93E0918102F09182028081E091870233
:10074000F091880282FD12C0908180918A028F5FB1
:100750008F7320918B02821751F0E0918A02F0E0B2
:10076000EF58FD4F958F80938A0201C08081FF91E1
:10077000EF919F918F912F910F900BBE0F900FBE15
:100780000F901F9018951F920F920FB60F92112481
:100790000BB60F922F933F934F935F936F937F937B
:1007A0008F939F93AF93BF93EF93FF938EE093E06C
:1007B00046DDFF91EF91BF91AF919F918F917F9116
:1007C0006F915F914F913F912F910F900BBE0F90C2
:1007D0000FBE0F901F9018951F920F920FB60F9299
:1007E00011240BB60F922F938F939F93EF93FF9348
:1007F000E0911E03F0911F038081E0912403F091AA
:10080000250382FD12C09081809127038F5F8F7333
:1008100020912803821751F0E0912703F0E0E25F76
:10082000FC4F958F8093270301C08081FF91EF914A
:100830009F918F912F910F900BBE0F900FBE0F9035
:100840001F901895E1E7F2E01382128248EE53E020
:1008500060E070E044835583668377838AE092E0AA
:10086000918380832DEC30E0358724872CEC30E0B9
:100870003787268728EC30E0318B208B29EC30E05D
:10088000338B228B2AEC30E0358B248B2EEC30E03E
:10089000378B268B118E128E138E148EEEE0F3E0C2
:1008A0001382128244835583668377839183808386
:1008B00085EC90E09587848784EC90E09787868725
:1008C00080EC90E0918B808B81EC90E0938B828B1D
:1008D00082EC90E0958B848B86EC90E0978B868BF6
:1008E000118E128E138E148E0895CF93DF93CDB791
:1008F000DEB7C750D1400FB6F894DEBF0FBECDBFF4
:10090000789484B5826084BD84B5816084BD85B5EA
:10091000826085BD85B5816085BD80916E008160F6
:1009200080936E001092810080918100826080939C
:10093000810080918100816080938100809180009E
:100940008160809380008091B10084608093B100C9
:100950008091B00081608093B000809191008260AE
:1009600080939100809191008160809391008091AB
:1009700090008160809390008091A10082608093BC
:10098000A1008091A10081608093A1008091A000CE
:1009900081608093A0008091210182608093210179
:1009A00080912101816080932101809120018160EB
:1009B0008093200180917A00846080937A008091F6
:1009C0007A00826080937A0080917A0081608093BF
:1009D0007A0080917A00806880937A001092C1003A
:1009E0008EE090E06ED2FC019093630280936202ED
:1009F000118210821382128215821482178216824B
:100A0000158614861186108613861286C12CD12C69
:100A100024E0E22EF12C04E312E026E030E049E38A
:100A200052E061E070E0DCDC5C0133E0E32EF12CAD
:100A300000E412E025E030E044E452E061E070E0E0
:100A4000CFDC4C014EE5C42E42E0D42E54E0E52E1E
:100A5000F12C0AE412E026E030E04FE452E061E0DD
:100A600070E0C501BDDC65E0E62EF12C06E512E084
:100A700025E030E0A80161E070E0C401B1DC109233
:100A8000650210926402109267021092660273E48B
:100A9000C72E72E0D72E0CE512E025E030E0A80169
:100AA00060E070E0809162029091630299DCE091D5
:100AB0008102F091820282E08083E0917D02F091D8
:100AC0007E021082E0917F02F09180028FEC8083A1
:100AD00010928902E0918502F091860286E080837F
:100AE000E0918302F0918402808180618083E091B3
:100AF0008302F0918402808188608083E091830288
:100B0000F0918402808180688083E0918302F0917B
:100B1000840280818F7D80839E012F5F3F4F29015A
:100B20008901E12CF12C39012FB7F89480916D02E5
:100B300090916E02A0916F02B09170022FBF8093CE
:100B4000790290937A02A0937B02B0937C0281E7B2
:100B500092E035DB97FF25C02FB7F89480916D02A6
:100B600090916E02A0916F02B09170022FBF4091E0
:100B7000790250917A0260917B0270917C02841B11
:100B8000950BA60BB70B40917502509176026091C0
:100B900077027091780284179507A607B707B8F215
:100BA0000EC08A30910559F0D8018D938D01BFEFA9
:100BB000EB1AFB0AE114E1E0FE0609F0B5CFEE20E6
:100BC00009F4AACFFF241701812C912CA12CB12C60
:100BD000CE5FDE4F1882C250D140CD5FDE4F18820B
:100BE000C350D140C12CD12C970121503109CA5F8B
:100BF000DE4F39832883C650D140EC14FD0409F43C
:100C00006FC0D201ED912D01CF5FDE4FE883C1505F
:100C1000D14096012F5F3F4FCC5FDE4F3983288351
:100C2000C450D140EA3361F0E03251F0CA5FDE4F88
:100C300088819981C650D140C816D90609F047C0AD
:100C400087E090E03ED18C01DC011C92C301880D4D
:100C5000991D12969C938E931197C6018819990934
:100C600014969C938E93139716961C921E9215972A
:100C7000CA5FDE4FE881F981C650D140CE16DF064B
:100C800029F4019614969C938E931397A114B104A2
:100C900031F0D50116961C930E9315970AC0CE5FBE
:100CA000DE4F0883C250D140CD5FDE4F1883C35062
:100CB000D140CC5FDE4F88809980C450D140CF5F57
:100CC000DE4FB881C150D140B03211F40BC0850164
:100CD000CC5FDE4FC880D980C450D14058018DCF41
:100CE000850101C016016101EFEFCE1ADE0A230172
:100CF0004C0C5D1CAA24AA94BA2C970121503109EE
:100D00004901CE14DF04D0F53FEFA316B30649F432
:100D1000D2018C91082E000C990B9ED0892B09F4DE
:100D20005601F20181912F018C3219F0C814D904B7
:100D300009F587E090E0C5D0FC0121E02083C301E4
:100D40008A0D9B1D92838183C6018A199B09948316
:100D5000838316821582C814D90419F401969483EA
:100D60008383D8011696FC93EE9315978F01AA24DE
:100D7000AA94BA2CBFEFCB1ADB0AC3CFE090620271
:100D8000F0906302CE5FDE4F0881C250D140CD5F4C
:100D9000DE4F1881C350D1400115110509F4BCCEB6
:100DA000F80180818111B8CEE114F10409F4B4CEC8
:100DB000D8011396CD90DC901497F701828193812E
:100DC000C816D90699F460817181A60111968D919A
:100DD0009C9112979BD1892B49F4D80115960D91BE
:100DE0001C9116970115110599F420C0F701868111
:100DF0009781C816D906B1F464817581A601D8011E
:100E000011968D919C91129781D1892B59F4E5CF40
:100E1000F801808181110AC0D7011A96ED90FC90EB
:100E20001B97BACFF701E084F184BECFD7011C969F
:100E3000ED91FC911D97309709F46ECECE5FDE4F99
:100E40006881C250D140CD5FDE4F7881C350D14020
:100E500082E692E0199560CE911106C0803219F0B9
:100E600089508550D0F70895992788270895A1E2E1
:100E70001A2EAA1BBB1BFD010DC0AA1FBB1FEE1F14
:100E8000FF1FA217B307E407F50720F0A21BB30B5F
:100E9000E40BF50B661F771F881F991F1A9469F7DB
:100EA00060957095809590959B01AC01BD01CF0137
:100EB0000895EE0FFF1F881F8BBF0790F691E02D5E
:100EC00019940F931F93CF93DF938230910510F401
:100ED00082E090E0E091AD03F091AE0320E030E0DD
:100EE000A0E0B0E0309719F1408151810281138177
:100EF00048175907C8F08417950769F4109731F01F
:100F000012960C93129713961C9327C00093AD036F
:100F10001093AE0322C02115310519F04217530773
:100F200018F49A01BD01EF01DF01F801DBCF2115B3
:100F30003105F9F0281B390B2430310580F48A8102
:100F40009B816115710521F0FB019383828304C0AD
:100F50009093AE038093AD03FE01329644C0FE0130
:100F6000E20FF31F81939193225031093983288333
:100F70003AC02091AB033091AC03232B41F4209174
:100F80000202309103023093AC032093AB03209113
:100F90000002309101022115310541F42DB73EB711
:100FA0004091040250910502241B350BE091AB03E4
:100FB000F091AC03E217F307A0F42E1B3F0B2817A8
:100FC000390778F0AC014E5F5F4F2417350748F0C2
:100FD0004E0F5F1F5093AC034093AB0381939193EB
:100FE00002C0E0E0F0E0CF01DF91CF911F910F91BF
:100FF0000895CF93DF93009709F481C0FC013297E5
:1010000013821282A091AD03B091AE03109781F4C8
:1010100020813181820F931F2091AB033091AC036B
:101020002817390751F5F093AC03E093AB0367C081
:10103000ED0120E030E0CE17DF0740F44A815B810C
:101040009E0141155105F1F0EA01F5CFD383C2832A
:1010500040815181840F951FC817D90759F48881A1
:101060009981840F951F0296918380838A819B8149
:10107000938382832115310529F4F093AE03E09325
:10108000AD033DC0E901FB83EA8349915991C40F47
:10109000D51FEC17FD0761F480819181840F951FA6
:1010A0000296E90199838883828193819B838A8355
:1010B000E0E0F0E012968D919C911397009719F063
:1010C000FD01DC01F7CF8D919C9111979D012E5F61
:1010D0003F4F820F931F2091AB033091AC03281731
:1010E000390769F4309729F41092AE031092AD03DA
:1010F00002C013821282B093AC03A093AB03DF91C2
:10110000CF91089581E090E0F8940DC0FB01DC01DF
:1011100004C08D910190801921F441505040C8F7CE
:0A112000881B990B0895F894FFCF87
:10112A000000AF038000000000004101A200D000CF
:10113A008D010101DF00F3004F49432C546573749C
:10114A002049444E000D0A004E6F206572726F727C
:10115A00002C2200535953540053595354454D00FF
:10116A00455252004552524F52004552523F004595
:10117A0052524F523F004E4558543F002A49444E5E
:02118A003F0024
:00000001FF
