:1000000072C000009FC000009DC000009BC00000A7
:1000100099C0000097C0000095C0000093C0000088
:1000200091C000008FC000008DC000008BC0000098
:1000300089C0000087C0000085C0000083C00000A8
:1000400081C000007FC000007DC000007BC00000B8
:1000500079C0000077C0000075C00000E2C2000057
:1000600071C000006FC000006DC000006BC00000D8
:1000700069C0000067C0000065C0000063C00000E8
:1000800061C000005FC000005DC000005BC00000F8
:100090003BC3000010C3000055C0000053C0000067
:1000A00051C000004FC000004DC000004BC0000018
:1000B00049C0000047C0000045C0000043C0000028
:1000C00041C000003FC000003DC000003BC0000038
:1000D00039C0000037C0000035C0000033C0000048
:1000E00031C000007F0711241FBECFEFD1E2DEBF79
:1000F000CDBF00E00CBF23E0AAE7B2E001C01D9233
:10010000AA32B207E1F712E0A0E0B2E0E0EAF7E1DC
:1001100000E00BBF02C007900D92AA37B107D9F7D4
:1001200010E0C3E7D0E000E005C021970109802F6F
:10013000FE011DD7C237D10780E00807B1F71AD3F7
:100140000C94CE0B5DCFCF92DF92EF92FF920F9384
:100150001F93CF93DF936C017A018B01C0E0D0E055
:10016000CE15DF0581F0D8016D918D01D601ED919D
:10017000FC910190F081E02DC6011995892B11F0B9
:100180002196EECF7E01C701DF91CF911F910F9194
:10019000FF90EF90DF90CF900895089580E090E079
:1001A0000895FC01538D448D252F30E0842F90E07D
:1001B000821B930B541710F0CF9608950197089562
:1001C000FC01918D828D981761F0828DDF01A80F5F
:1001D000B11D5D968C91928D9F5F9F73928F90E081
:1001E00008958FEF9FEF0895FC01918D828D9817F0
:1001F00031F0828DE80FF11D858D90E008958FEF2D
:100200009FEF0895FC01918D228D892F90E0805CF5
:100210009F4F821B91098F739927089580E892E080
:10022000F1DF21E0892B09F420E0822F0895FC0101
:10023000848DDF01A80FB11DA35ABF4F2C91848D6F
:1002400090E001968F739927848FA689B7892C93A4
:10025000A089B1898C91837080648C93938D848DF7
:10026000981306C00288F389E02D80818F7D8083FA
:100270000895EF92FF920F931F93CF93DF93EC01BA
:1002800081E0888F9B8D8C8D981305C0E889F98952
:10029000808185FD25C0F62E0B8D10E00F5F1F4F6E
:1002A0000F731127E02E8C8DE8120BC00FB607FCE0
:1002B000FACFE889F989808185FFF5CFCE01B7DFD4
:1002C000F2CF8B8DFE01E80FF11DE35AFF4FF08254
:1002D0009FB7F8940B8FEA89FB89808180620AC0FE
:1002E0009FB7F894EE89FF896083E889F989808156
:1002F0008370806480839FBF81E090E0DF91CF9125
:100300001F910F91FF90EF900895CF93DF93EC0131
:10031000888D8823C1F0EA89FB89808185FD05C02D
:10032000A889B9898C9186FD0EC00FB607FCF5CF60
:10033000808185FFF2CFA889B9898C9185FFEDCFA7
:10034000CE0175DFE8CFDF91CF91089580E090E096
:10035000892B41F080E090E0892B21F00E94000081
:10036000811120C080E090E0892B19F057DF8111C6
:100370001CC080E090E0892B41F080E090E0892B68
:1003800021F00E940000811113C080E090E0892BD1
:10039000A1F080E090E0892B81F00E9400008111A3
:1003A0000AC008950E940000DDCF0E940000E1CF46
:1003B0000E940000EACF0C9400000895CF93DF93D1
:1003C000009739F0FC01D581C68171D68D2F9C2F05
:1003D000F7CFDF91CF9108950F931F93CF93DF93C2
:1003E0008C0188E090E0CBD5EC011D821C821F823D
:1003F0001E820115110529F4198218821B821A82A6
:1004000006C0C801BCD5998388831B830A83CE01AB
:10041000DF91CF911F910F9108956F927F928F92EC
:100420009F92AF92BF92CF92DF92EF92FF920F9383
:100430001F93CF93DF93EC015A01390161307105AD
:1004400019F48A849B8401C04C018114910439F40D
:100450008EE090E094D5FC019B878A8712C0D4017E
:1004600018968D919C911997009711F04C01F7CF38
:100470008EE090E084D5FC01D40119969C938E9374
:1004800018971186108613861286B182A082738215
:10049000628215830483F782E682D586C486CF0103
:1004A000DF91CF911F910F91FF90EF90DF90CF9050
:1004B000BF90AF909F908F907F906F900895CF9353
:1004C000DF93CB017BDF8DE090E086DFEC0168E11C
:1004D00072E08881998180D68A819B8101979B8374
:1004E0008A83CE01DF91CF910895CF92DF92EF9270
:1004F000FF920F931F93CF93DF938C016B0180E0EA
:1005000090E06ADF7C01FC0115821482F801C2814F
:10051000D381209789F488E090E031D5EC0189E01F
:1005200090E02DD59B838A8365E272E055D688E002
:1005300090E09D838C8309C08E819F81F801938315
:100540008283892B11F4158214828A819B81F701A1
:10055000918380838C819D8193838283C6012EDF6A
:10056000CE01A5D5C701DF91CF911F910F91FF90CB
:10057000EF90DF90CF900895CF93DF93CB011EDFF4
:1005800084E190E029DFEC011F9289E28F938EE2F3
:1005900092E09F938F9389818F9388818F9323D645
:1005A0009B838A830F900F900F900F900F900F9066
:1005B000CE01DF91CF91089503D6AF92BF92CF9233
:1005C000DF92EF92FF920F931F93CF93DF937C0103
:1005D0005A01EB018C01C8018E199F098A159B05F0
:1005E0009CF4F80181918F01082E000C990BECD539
:1005F0006C018991082E000C990BE6D5C816D90616
:1006000051F380E090E002C081E090E0DF91CF9173
:100610001F910F91FF90EF90DF90CF90BF90AF9020
:1006200008951F920F920FB60F9211242F933F93AC
:100630008F939F93AF93BF93809122039091230355
:10064000A0912403B09125033091210323E0230FCF
:100650002D3720F40196A11DB11D05C026E8230FFA
:100660000296A11DB11D2093210380932203909334
:100670002303A0932403B093250380911D0390913D
:100680001E03A0911F03B09120030196A11DB11D6F
:1006900080931D0390931E03A0931F03B093200328
:1006A000BF91AF919F918F913F912F910F900FBE6E
:1006B0000F901F9018951F920F920FB60F92112452
:1006C0000BB60F922F933F934F935F936F937F934C
:1006D0008F939F93AF93BF93EF93FF9380E892E044
:1006E000A6DDFF91EF91BF91AF919F918F917F9187
:1006F0006F915F914F913F912F910F900BBE0F9093
:100700000FBE0F901F9018951F920F920FB60F9269
:1007100011240BB60F922F938F939F93EF93FF9318
:10072000E0919002F09191028081E0919602F09127
:10073000970282FD12C09081809199028F5F8F7322
:1007400020919A02821751F0E0919902F0E0E0586E
:10075000FD4F958F8093990201C08081FF91EF91A9
:100760009F918F912F910F900BBE0F900FBE0F9006
:100770001F901895CF93DF93CDB7DEB7C351D1400B
:100780000FB6F894DEBF0FBECDBF789484B58260FB
:1007900084BD84B5816084BD85B5826085BD85B525
:1007A000816085BD80916E00816080936E001092A3
:1007B000810080918100826080938100809181001E
:1007C00081608093810080918000816080938000AF
:1007D0008091B10084608093B1008091B00081600D
:1007E0008093B0008091910082608093910080910D
:1007F000910081608093910080919000816080934E
:1008000090008091A10082608093A1008091A1005E
:1008100081608093A1008091A00081608093A000FE
:10082000809121018260809321018091210181606A
:10083000809321018091200181608093200180912B
:100840007A00846080937A0080917A00826080933D
:100850007A0080917A00816080937A0080917A009A
:10086000806880937A001092C1008EE090E087D378
:10087000FC0190937B0280937A0211821082138292
:1008800012821582148217821682158614861186AA
:10089000108613861286C12CD12C24E0E22EF12C76
:1008A0000CE312E026E030E041E452E061E070E069
:1008B000B4DD5C0133E0E32EF12C08E412E025E026
:1008C00030E04CE452E061E070E0A7DD4C0145E728
:1008D000C42E42E0D42E54E0E52EF12C02E512E0C5
:1008E00026E030E047E552E061E070E0C50195DDCB
:1008F00065E0E62EF12C0EE512E025E030E0A801DF
:1009000061E070E0C40189DD10927D0210927C02EA
:1009100010927F0210927E027FE5C72E72E0D72EE2
:1009200004E612E025E030E0A80160E070E080918C
:100930007A0290917B0271DDECEBCE2EE2E0DE2EAE
:100940000AE612E029E030E040E752E061E070E0C2
:1009500080917A0290917B0260DD82E390E0A0E0DA
:10096000B0E08093840290938502A0938602B093B6
:100970008702E0919002F091910282E08083E09101
:100980008C02F0918D021082E0918E02F0918F0224
:100990008FEC808310929802E0919402F09195027E
:1009A00086E08083E0919202F091930280818061E1
:1009B0008083E0919202F09193028081886080832D
:1009C000E0919202F0919302808180688083E091AF
:1009D0009202F091930280818F7D80839E012F5F30
:1009E0003F4FCD5FDE4F39832883C350D14089010B
:1009F000E12CF12C2FB7F8948091220390912303DE
:100A0000A0912403B09125032FBF80938802909377
:100A10008902A0938A02B0938B0280E892E0D0DB37
:100A200097FF25C02FB7F89480912203909123035C
:100A3000A0912403B09125032FBF409188025091CB
:100A4000890260918A0270918B02841B950BA60B20
:100A5000B70B40918402509185026091860270919B
:100A6000870284179507A607B707B8F20EC08A3029
:100A7000910559F0D8018D938D01BFEFEB1AFB0A58
:100A8000E114E1E0FE0609F0B5CFEE2009F4A6CFAF
:100A900097013327C85FDE4F39832883C850D14080
:100AA000412C512C20E030E0212C312CC85FDE4F4E
:100AB00088819981C850D1400197C05FDE4F9983EA
:100AC0008883C051D140C85FDE4FA881B981C8502A
:100AD000D1402A163B0621F4F20180E090E0C2C129
:100AE000CD5FDE4FE881F981C350D1408191CD5F68
:100AF000DE4FF983E883C350D1408B3351F0C05FA0
:100B0000DE4F88819981C051D1408215930509F04B
:100B10009DC18101021B130BC05FDE4FA881B9810B
:100B2000C051D1402A163B0611F40F5F1F4FC65F1C
:100B3000DE4F19830883CA50D140E1E0F0E0EC0FAA
:100B4000FD1FE20FF31FCF5FDE4FF983E883C15033
:100B5000D140C45FDE4FF983E883CC50D140612C93
:100B6000712CA12CB12CCA5FDE4F1882C650D14027
:100B7000C95FDE4F1882C750D140C12CD12C9801DB
:100B800021503109C25FDE4F39832883CE50D140D6
:100B90000C151D0509F46EC0C45FDE4FA881B98134
:100BA000CC50D140ED91C45FDE4FB983A883CC50C7
:100BB000D140CB5FDE4FE883C550D140EA3361F0CE
:100BC000E03251F0C25FDE4F28813981CE50D140F2
:100BD0002C153D0509F048C0460186189708C25FEC
:100BE000DE4F88819981CE50D1408C159D0519F436
:100BF0009FEF891A990A87E090E0C1D17C01DC015E
:100C00001C92CF5FDE4FE881F981C150D1406E0E5A
:100C10007F1E12967C926E92119714969C928E92E1
:100C2000139716961C921E921597A114B10431F0D9
:100C3000D50116969C938E9315970AC0CA5FDE4F16
:100C40008883C650D140C95FDE4FF882C750D1407B
:100C50003601BFEF6B1A7B0ACB5FDE4FE881C550D0
:100C6000D140E03211F408C07501FFEFCF1ADF0A5E
:100C700057018ECF750101C086010F5F1F4FCF5FF7
:100C8000DE4F88809980C150D140800E911ECC24C7
:100C9000CA94DC2CC65FDE4FA880B980CA50D14010
:100CA00021E0A21AB108C65FDE4F88819981CA503F
:100CB000D1400817190708F03EC09FEFC916D906A2
:100CC00049F4D4018C91082E000C990B45D1892B45
:100CD00009F46801F40181914F018C3219F00A1571
:100CE0001B0531F587E090E04AD1FC0121E020832B
:100CF000CF5FDE4F88819981C150D1408C0D9D1D01
:100D000092838183C8018C199D0994838383168201
:100D100015820A151B0519F4019694838383D70164
:100D20001696FC93EE9315977F01CC24CA94DC2C85
:100D30000F5F1F4FB8CFE0907A02F0907B02CA5F3E
:100D4000DE4F0881C650D140C95FDE4F1881C750C1
:100D5000D1400115110589F1F801808181112DC063
:100D6000E114F10451F1D8011396CD90DC90149761
:100D7000F70182819381C816D90651F4608171818F
:100D8000A60111968D919C91129717DC892B01F584
:100D9000D70116968D919C911797C816D90609F020
:100DA00092C014966D917C911597A601F8018181EE
:100DB000928103DC892B61F486C080E090E00CDB3B
:100DC000EFEFFFEFDC011596FC93EE93149717C03D
:100DD000F801058116810115110509F07AC0D701C6
:100DE0001C96ED91FC911D97309709F07AC080E038
:100DF00090E0F2DA2EEF3FEFFC0135832483009779
:100E000051F480E090E0E8DAECEFFFEFDC011596BA
:100E1000FC93EE9314974114510459F0CE5EDE4FCB
:100E2000A881B981C251D14017969C938E93169791
:100E300001C02C01FC011782168291012F5F3F4FE8
:100E4000CE5EDE4F99838883C251D140FFEF2F1AC7
:100E50003F0A39CE22813381232B09F00196068087
:100E6000F781E02D3097B1F7892BF9F08201011558
:100E70001105D9F0D80112964D915C9113976D919F
:100E80007C9180E892E05FD9F80186819781892B77
:100E900011F06BE301C06AE080E892E0EAD9D80182
:100EA00016960D911C911797E2CF4114510409F445
:100EB00095CDF2010681178180819181F8D0C20120
:100EC000F6D02801F2CFD7011896ED90FC90199733
:100ED00047CFD8018C91811182CFF701E284F3844E
:100EE00038CFCA5FDE4F6881C650D140C95FDE4F40
:100EF0007881C750D1408AE792E0199580CFE0E829
:100F0000F2E01382128288EE93E0A0E0B0E08483E6
:100F10009583A683B7838AE092E0918380838DECEA
:100F200090E0958784878CEC90E09787868788ECA3
:100F300090E0918B808B89EC90E0938B828B8AEC94
:100F400090E0958B848B8EEC90E0978B868B118E46
:100F5000128E138E148E0895911106C0803219F0EE
:100F600089508550D0F70895992788270895EE0F66
:100F7000FF1F881F8BBF0790F691E02D19940F93E8
:100F80001F93CF93DF938230910510F482E090E0BD
:100F9000E0912803F091290320E030E0A0E0B0E0E8
:100FA000309719F140815181028113814817590707
:100FB000C8F08417950769F4109731F012960C93D6
:100FC000129713961C9327C00093280310932903AC
:100FD00022C02115310519F04217530718F49A0160
:100FE000BD01EF01DF01F801DBCF21153105F9F07B
:100FF000281B390B2430310580F48A819B816115CF
:10100000710521F0FB019383828304C0909329032F
:1010100080932803FE01329644C0FE01E20FF31FC5
:101020008193919322503109398328833AC02091CA
:10103000260330912703232B41F4209102023091A3
:10104000030230932703209326032091000230915E
:1010500001022115310541F42DB73EB7409104023C
:1010600050910502241B350BE0912603F0912703D4
:10107000E217F307A0F42E1B3F0B2817390778F06F
:10108000AC014E5F5F4F2417350748F04E0F5F1FCE
:1010900050932703409326038193919302C0E0E08D
:1010A000F0E0CF01DF91CF911F910F910895CF9381
:1010B000DF93009709F481C0FC01329713821282FA
:1010C000A0912803B0912903109781F420813181E8
:1010D000820F931F20912603309127032817390789
:1010E00051F5F0932703E093260367C0ED0120E05C
:1010F00030E0CE17DF0740F44A815B819E01411545
:101100005105F1F0EA01F5CFD383C28340815181CB
:10111000840F951FC817D90759F488819981840FC6
:10112000951F0296918380838A819B81938382831A
:101130002115310529F4F0932903E09328033DC0DC
:10114000E901FB83EA8349915991C40FD51FEC173C
:10115000FD0761F480819181840F951F0296E9015A
:1011600099838883828193819B838A83E0E0F0E086
:1011700012968D919C911397009719F0FD01DC0157
:10118000F7CF8D919C9111979D012E5F3F4F820F5C
:10119000931F20912603309127032817390769F4FC
:1011A000309729F4109229031092280302C0138269
:1011B0001282B0932703A0932603DF91CF91089565
:1011C00081E090E0F894EAC29111089581568A5125
:1011D00008F4805285580895FB01DC0101900D92BE
:1011E0000020E1F708950F931F93CF93DF93CDB7BE
:1011F000DEB72E970FB6F894DEBF0FBECDBF0E89B7
:101200001F8986E08C831A8309838FEF9FE79E8373
:101210008D83AE01465E5F4F688D798DCE0101965C
:1012200010D0EF81F885E00FF11F10822E960FB6D7
:10123000F894DEBF0FBECDBFDF91CF911F910F910C
:1012400008952F923F924F925F926F927F928F926A
:101250009F92AF92BF92CF92DF92EF92FF920F9345
:101260001F93CF93DF93CDB7DEB72B970FB6F894CC
:10127000DEBF0FBECDBF6C017B018A01FC0117826E
:101280001682838181FFBFC1CE0101963C01F60128
:101290009381F70193FD859193FF81917F018823CD
:1012A00009F4ADC1853239F493FD859193FF8191A5
:1012B0007F01853221F4B60190E0D6D1E8CF912CA0
:1012C000212C312CFFE1F315D8F08B3279F038F472
:1012D000803279F08332A1F4232D20611DC08D323C
:1012E00061F0803369F4232D216016C0832D826064
:1012F000382EE32DE4603E2E2AC0F32DF8601DC089
:1013000037FC2DC020ED280F2A3040F08E32B9F482
:1013100036FC75C1232D2064322E19C036FE06C05E
:101320008AE0989E200D1124922E11C0EAE02E9E94
:10133000200D1124222EF32DF0623F2E08C08C3692
:1013400021F4832D8068382E02C0883641F4F701DD
:1013500093FD859193FF81917F018111B3CF982FE8
:101360009F7D9554933028F40C5F1F4F9FE3998322
:101370000DC0833631F0833771F0833509F055C0E5
:1013800020C0F801808189830E5F1F4F88248394D9
:10139000912C530112C02801F2E04F0E511CF801AC
:1013A000A080B18036FE03C0692D70E002C06FEFEF
:1013B0007FEFC5014ED14C018201F32DFF773F2E07
:1013C00015C0280122E0420E511CF801A080B18016
:1013D00036FE03C0692D70E002C06FEF7FEFC501DC
:1013E0002DD14C01F32DF0683F2E820133FC19C042
:1013F000822D90E088169906A0F4B60180E290E074
:1014000033D12A94F5CFF50137FC859137FE8191D0
:101410005F01B60190E028D121102A9421E0821AC0
:1014200091088114910479F7E1C0843611F089366E
:1014300039F5F80137FE07C060817181828193819F
:101440000C5F1F4F08C060817181072E000C880B54
:10145000990B0E5F1F4FF32DFF763F2E97FF09C0AC
:1014600090958095709561957F4F8F4F9F4FF06855
:101470003F2E2AE030E0A30133D1882E861844C0E5
:10148000853731F4232D2F7EB22E2AE030E025C09F
:10149000932D997FB92E8F36C1F018F4883579F0E5
:1014A000AEC0803719F0883721F0A9C0E92FE0617C
:1014B000BE2EB4FE0DC0FB2DF460BF2E09C034FE5D
:1014C0000AC0292F2660B22E06C028E030E005C0F1
:1014D00020E130E002C020E132E0F801B7FE07C0B1
:1014E00060817181828193810C5F1F4F06C0608192
:1014F000718180E090E00E5F1F4FA301F1D0882E34
:101500008618FB2DFF773F2E36FE0DC0232D2E7F34
:10151000A22E891458F434FE0BC032FC09C0832D6E
:101520008E7EA82E05C0B82CA32C03C0B82C01C0F9
:10153000B92CA4FE0FC0FE01E80DF11D808180339F
:1015400021F49A2D997EA92E09C0A2FE06C0B3945B
:10155000B39404C08A2D867809F0B394A3FC10C01C
:10156000A0FE06C0B21480F4280C922C9B180DC06B
:10157000B21458F4B60180E290E076D0B394F8CF7C
:10158000B21418F42B1802C0982C212CA4FE0FC002
:10159000B60180E390E068D0A2FE16C0A1FC03C0B3
:1015A00088E790E002C088E590E0B6010CC08A2D83
:1015B000867851F0A1FE02C08BE201C080E2A7FC58
:1015C0008DE2B60190E050D0891430F4B60180E38A
:1015D00090E04AD09A94F8CF8A94F301E80DF11D77
:1015E0008081B60190E040D08110F6CF222009F42E
:1015F0004ECEB60180E290E037D02A94F7CFF601C4
:101600008681978102C08FEF9FEF2B960FB6F894DB
:10161000DEBF0FBECDBFDF91CF911F910F91FF9025
:10162000EF90DF90CF90BF90AF909F908F907F9082
:101630006F905F904F903F902F900895FC01059020
:10164000615070400110D8F7809590958E0F9F1FC4
:101650000895FC016150704001900110D8F7809509
:1016600090958E0F9F1F08950F931F93CF93DF9335
:10167000FB01238121FD03C08FEF9FEF2CC022FFD0
:1016800016C046815781248135814217530744F49F
:10169000A081B1819D012F5F3F4F318320838C93C7
:1016A000268137812F5F3F4F3783268314C08B01FC
:1016B000EC01FB010084F185E02D1995892BE1F601
:1016C000D80116968D919C911797019617969C9329
:1016D0008E931697CE01DF91CF911F910F910895B0
:1016E000FA01AA27283051F1203181F1E8946F9353
:1016F0006E7F6E5F7F4F8F4F9F4FAF4FB1E03ED0F9
:10170000B4E03CD0670F781F891F9A1FA11D680F96
:10171000791F8A1F911DA11D6A0F711D811D911DC9
:10172000A11D20D009F468943F912AE0269F11243E
:101730003019305D3193DEF6CF010895462F4770A2
:10174000405D4193B3E00FD0C9F7F6CF462F4F70FD
:10175000405D4A3318F0495D31FD4052419302D05B
:10176000A9F7EACFB4E0A695979587957795679501
:10177000BA95C9F700976105710508959B01AC0101
:101780000A2E06945795479537952795BA95C9F728
:10179000620F731F841F951FA01D0895F894FFCF3B
:1017A00000002A038000000000003901A300D100DE
:1017B00085010201E000F40049444E207265737017
:1017C0006F6E7365004E6F206572726F720050729B
:1017D000657373757265203D202569005359535414
:1017E0000053595354454D00455252004552524FF3
:1017F00052004552523F004552524F523F004E4513
:1018000058543F002A49444E3F00505245533F0030
:0A18100050524553535552453F0016
:020000023000CC
:10E000000D9489F10D94B2F10D94B2F10D94B2F129
:10E010000D94B2F10D94B2F10D94B2F10D94B2F1F0
:10E020000D94B2F10D94B2F10D94B2F10D94B2F1E0
:10E030000D94B2F10D94B2F10D94B2F10D94B2F1D0
:10E040000D94B2F10D94B2F10D94B2F10D94B2F1C0
:10E050000D94B2F10D94B2F10D94B2F10D94B2F1B0
:10E060000D94B2F10D94B2F10D94B2F10D94B2F1A0
:10E070000D94B2F10D94B2F10D94B2F10D94B2F190
:10E080000D94B2F10D94B2F10D94B2F10D94B2F180
:10E090000D94B2F10D94B2F10D94B2F10D94B2F170
:10E0A0000D94B2F10D94B2F10D94B2F10D94B2F160
:10E0B0000D94B2F10D94B2F10D94B2F10D94B2F150
:10E0C0000D94B2F10D94B2F10D94B2F10D94B2F140
:10E0D0000D94B2F10D94B2F10D94B2F10D94B2F130
:10E0E0000D94B2F141546D656761323536300041AF
:10E0F000726475696E6F206578706C6F72657220DE
:10E1000073746B3530305632206279204D4C530099
:10E11000426F6F746C6F616465723E004875683F52
:10E1200000436F6D70696C6564206F6E203D200048
:10E130004350552054797065202020203D20005FF9
:10E140005F4156525F415243485F5F3D2000415658
:10E1500052204C696243205665723D20004743437C
:10E160002056657273696F6E203D20004350552024
:10E1700049442020202020203D20004C6F7720663D
:10E18000757365202020203D20004869676820665F
:10E190007573652020203D200045787420667573D6
:10E1A00065202020203D20004C6F636B2066757336
:10E1B000652020203D20004D617220203720323024
:10E1C000313300312E362E3800342E332E350056A2
:10E1D00023202020414444522020206F7020636F70
:10E1E00064652020202020696E73747275637469E1
:10E1F0006F6E2061646472202020496E74657272B3
:10E20000757074006E6F20766563746F7200726A49
:10E210006D702020006A6D70200057686174207056
:10E220006F72743A00506F7274206E6F7420737541
:10E2300070706F72746564004D7573742062652030
:10E2400061206C6574746572002000577269747483
:10E25000696E672045450052656164696E672045B7
:10E26000450045452065727220636E743D00504F35
:10E27000525400303D5A65726F2061646472003FF1
:10E280003D43505520737461747300403D454550C3
:10E29000524F4D207465737400423D426C696E6B41
:10E2A000204C454400453D44756D70204545505215
:10E2B0004F4D00463D44756D7020464C415348001B
:10E2C000483D48656C70004C3D4C69737420492F83
:10E2D0004F20506F72747300513D51756974005234
:10E2E0003D44756D702052414D00563D73686F7707
:10E2F00020696E7465727275707420566563746FF0
:10E30000727300593D506F727420626C696E6B00BD
:10E310002A0011241FBECFEFD1E2DEBFCDBF01E046
:10E320000CBF12E0A0E0B2E0EEE1FDEF03E00BBFB6
:10E3300002C007900D92A030B107D9F712E0A0E01B
:10E34000B2E001C01D92AE30B107E1F70F9460F367
:10E350000D948DFE01E20EBF0FEF0DBF11241FBE05
:10E360000D9460F30D9400F020E030E040ED57E0B4
:10E3700005C0FA013197F1F72F5F3F4F2817390792
:10E38000C0F308959C01260F311DC901A0E0B0E043
:10E390002F5F3F4FABBFFC018791882361F08093D3
:10E3A000C6008091C00086FFFCCF8091C0008064D1
:10E3B0008093C000EACF08958DE08093C6008091DD
:10E3C000C00086FFFCCF8091C00080648093C000B5
:10E3D0008AE08093C6008091C00086FFFCCF8091C8
:10E3E000C00080648093C00008950F94C2F10F9420
:10E3F000DCF10895FC019081992359F09093C600B7
:10E400008091C00086FFFCCF8091C0008064809323
:10E41000C0003196992379F70895282F982F929567
:10E420009F70892F805D8A3308F0895F8093C600D2
:10E430008091C00086FFFCCF8091C00080648093F3
:10E44000C000822F8F70982F905D9A3308F0995FEB
:10E450009093C6008091C00086FFFCCF8091C000E1
:10E4600080648093C00008959C01FB01853691056E
:10E470001CF46330710594F0C90164E670E00F94F8
:10E480002EFE605D7F4F6093C6008091C00086FFC6
:10E49000FCCF8091C00080648093C0002B30310598
:10E4A00014F43297B4F0C90164E670E00F942EFEC4
:10E4B0006AE070E00F942EFE605D7F4F6093C600AF
:10E4C0008091C00086FFFCCF8091C0008064809363
:10E4D000C000C9016AE070E00F942EFEC0968093E0
:10E4E000C6008091C00086FFFCCF8091C000806490
:10E4F0008093C00008951F93182F8EE692EE60E07F
:10E500000F94C2F11093C6008091C00086FFFCCF2B
:10E510008091C00080648093C0000F94DCF11F9153
:10E5200008952F923F924F925F926F927F928F92B7
:10E530009F92AF92BF92CF92DF92EF92FF920F9392
:10E540001F93DF93CF93CDB7DEB762970FB6F894E2
:10E55000DEBF0FBECDBF382E622ECA01DB015C01CB
:10E560006D01772420E2222E2E010894411C511CBB
:10E570008BC081E0A81680E0B80681E0C80680E084
:10E58000D80628F0C601AA27BB270F940DF2BB2797
:10E59000AD2D9C2D8B2D0F940DF28A2D0F940DF225
:10E5A0002092C6008091C00086FFFCCF8091C00001
:10E5B00080648093C0009DE29093C6008091C0006B
:10E5C00086FFFCCF8091C00080648093C0002092C1
:10E5D000C6008091C00086FFFCCF8091C00080649F
:10E5E0008093C00019828601750188249924A1E0D6
:10E5F0003A1651F03A1620F0B2E03B1661F409C029
:10E600000BBFF701779007C0C7010F9477FE782EF4
:10E6100002C0F7017080872D0F940DF22092C60082
:10E620008091C00086FFFCCF8091C0008064809301
:10E63000C000872D8052F401EF70F0708F3520F408
:10E64000E40DF51D708204C0E40DF51D8EE280839B
:10E650000894E11CF11C011D111D0894811C911CE2
:10E6600090E18916910409F0C2CF80E190E0A0E02A
:10E67000B0E0A80EB91ECA1EDB1E198AC2010F9493
:10E68000FAF10F94DCF16A94662009F072CF629679
:10E690000FB6F894DEBF0FBECDBFCF91DF911F91B3
:10E6A0000F91FF90EF90DF90CF90BF90AF909F9031
:10E6B0008F907F906F905F904F903F902F90089534
:10E6C0002F923F924F925F926F927F928F929F9282
:10E6D000AF92BF92CF92DF92EF92FF920F931F9370
:10E6E000DF93CF93CDB7DEB7CD53D1400FB6F894BB
:10E6F000DEBF0FBECDBF01E20EBF0FEF0DBF94B75F
:10E70000F894A89514BE80916000886180936000A1
:10E7100010926000789493FF05C0E0910002F091A0
:10E7200001021995279A2F9A8091C00082608093E8
:10E73000C00080E18093C40088E18093C1000000A4
:10E74000EE24FF24870144E0A42EB12CCC24DD2448
:10E7500024C0C5010197F1F70894E11CF11C011DCB
:10E76000111D21E2E2162EE4F20620E0020720E06D
:10E77000120718F031E0C32ED12CC801B70127ECE5
:10E780003BE140E050E00F9441FE611571058105C9
:10E79000910519F485B1805885B98091C00087FD35
:10E7A00003C0C114D104A9F2A6014F5F5F4FC25E3E
:10E7B000DE4F59834883CE51D140C25EDE4F8881FF
:10E7C0009981CE51D140019711F00D9410FEC05D9A
:10E7D000DE4F19821882C053D14060E0C15DDE4F28
:10E7E0001882CF52D14088249924C35DDE4F19820C
:10E7F0001882CD52D140C05EDE4F188219821A8233
:10E800001B82C052D140CE5CDE4F188219821A8220
:10E810001B82C253D140EE24FF2487010BBFF701B6
:10E8200007911691C45CDE4F19830883CC53D14005
:10E830000D940BFEC25EDE4F28813981CE51D1404E
:10E840002130310509F52091C600C25EDE4F1982E4
:10E850001882CE51D14022C02F5F3F4F4F4F5F4FA4
:10E86000213082E138078AE7480780E0580780F0C6
:10E87000C45CDE4FE881F981CC53D140EF5FFF4F9C
:10E8800019F0EE27FF27099420E030E040E050E047
:10E890008091C00087FFE0CF2091C600C35DDE4FAE
:10E8A00048815981CD52D1404F5F5F4FC35DDE4FEC
:10E8B00059834883CD52D140213209F063C64A3092
:10E8C000510508F05FC60894811C911C53E0851621
:10E8D000910409F059C600E010E018C081E280936D
:10E8E000C6008091C00086FFFCCF8091C00080648C
:10E8F0008093C0002F5F3F4F2931310579F70F9486
:10E90000DCF10F5F1F4F0530110519F020E030E0FA
:10E91000E5CF10920A0210920B0210920C02109294
:10E920000D02109206021092070210920802109235
:10E930000902109202021092030210920402109235
:10E9400005028FEE90EE60E00F94F5F180E191EE1C
:10E9500060E00F94C2F18091C00087FFFCCF9091DE
:10E96000C600903608F09F759032B8F09093C600BC
:10E970008091C00086FFFCCF8091C00080648093AE
:10E98000C000A0E2A093C6008091C00086FFFCCF2B
:10E990008091C00080648093C000983409F4D7C18E
:10E9A0009934B8F4923409F459C1933458F490333B
:10E9B00019F1903308F4E3C59F33A1F1903409F0C5
:10E9C000DEC5BDC0953409F470C1963409F0D7C5D1
:10E9D00098C1923509F42BC2933538F49C3409F46C
:10E9E000F5C1913509F0CBC518C2963509F445C279
:10E9F000993509F0C4C567C483E792EE62E00F94CD
:10EA0000F5F110920602109207021092080210927D
:10EA1000090210920A0210920B0210920C0210923C
:10EA20000D0213C18FE792EE62E00F94F5F18FEEC5
:10EA300090EE60E00F94F5F181E291EE60E00F94CA
:10EA4000C2F187EB91EE60E00F94F5F180E391EE77
:10EA500060E00F94C2F184EE90EE60E00F94F5F167
:10EA60008FE391EE60E00F94C2F186E090E061E008
:10EA700070E00F9434F20F94DCF18DE591EE60E0DC
:10EA80000F94C2F189EC91EE60E00F94F5F18EE401
:10EA900091EE60E00F94C2F183EC91EE60E00F9490
:10EAA000F5F18CE691EE60E00F94C2F18EE10F94E7
:10EAB0000DF288E90F940DF281E00F940DF20F949E
:10EAC000DCF18BE791EE60E00F94C2F119E0E0E039
:10EAD000F0E010935700E4918E2F0F940DF20F94F5
:10EAE000DCF18AE891EE60E00F94C2F1E3E0F0E03F
:10EAF00010935700E4918E2F0F940DF20F94DCF1D8
:10EB000089E991EE60E00F94C2F1E2E0F0E0109349
:10EB10005700E4918E2F0F940DF20F94DCF188EAE8
:10EB200091EE60E00F94C2F1E1E0F0E01093570045
:10EB30001491812F0F940DF20F94DCF107CF8BE825
:10EB400092EE62E00F94F5F18BE492EE60E00F94A8
:10EB5000F5F10F94DCF100E010E019C0C8016F2D51
:10EB60000F947FFEFF2031F489E492EE60E00F9471
:10EB7000C2F10BC0F092C6008091C00086FFFCCFAE
:10EB80008091C00080648093C0000F5F1F4FC80158
:10EB900081519F41A0E0B0E0ABBFFC01F790BAE229
:10EBA000FB1621F0E2E000301E07C1F60F94DCF105
:10EBB0000F94DCF187E592EE60E00F94F5F10F948D
:10EBC000DCF1CC24DD2400E010E01EC0C8010F946D
:10EBD00077FEF82E882331F489E492EE60E00F94FA
:10EBE000C2F10BC08093C6008091C00086FFFCCFAD
:10EBF0008091C00080648093C000FE1419F00894D6
:10EC0000C11CD11C0F5F1F4FC80181519F41A0E063
:10EC1000B0E0ABBFFC01E790FAE2EF1621F022E092
:10EC20000030120799F60F94DCF10F94DCF182E6C4
:10EC300092EE60E00F94C2F1C60161E070E00F94C3
:10EC400034F20F94DCF10F94DCF110920202109276
:10EC50000302109204021092050278CE89E992EE26
:10EC600062E00F94F5F1279A2F9A16C02F9880E052
:10EC700090E0E0EDF7E03197F1F7019684369105E9
:10EC8000C1F72F9A80E090E0E0EDF7E03197F1F7DF
:10EC9000019684369105C1F78091C00087FFE6CFC9
:10ECA0008091C00087FFFCCF64C485EA92EE62E0E9
:10ECB0000F94F5F140910202509103026091040219
:10ECC0007091050281E020E10F9491F2809102029F
:10ECD00090910302A0910402B091050280509F4FD1
:10ECE000AF4FBF4F8093020290930302A0930402A0
:10ECF000B093050280509041A040B04008F426CE69
:10ED0000A4CF83EB92EE62E00F94F5F140910602FE
:10ED100050910702609108027091090280E020E1A1
:10ED20000F9491F28091060290910702A09108023F
:10ED3000B091090280509F4FAF4FBF4F80930602A2
:10ED400090930702A0930802B0930902FFCD80ECD4
:10ED500092EE62E00F94F5F183E792EE60E00F949B
:10ED6000F5F18FE792EE60E00F94F5F18BE892EE0B
:10ED700060E00F94F5F189E992EE60E00F94F5F10F
:10ED800085EA92EE60E00F94F5F183EB92EE60E09D
:10ED90000F94F5F180EC92EE60E00F94F5F187ECC2
:10EDA00092EE60E00F94F5F188ED92EE60E00F9442
:10EDB000F5F18FED92EE60E00F94F5F18AEE92EEB0
:10EDC00060E00F94F5F183E093EEBDCD87EC92EE19
:10EDD00062E00F94F5F181E40F947BF282E40F94EA
:10EDE0007BF283E40F947BF284E40F947BF285E45E
:10EDF0000F947BF286E40F947BF287E40F947BF20E
:10EE000088E40F947BF28AE40F947BF28BE40F94F6
:10EE10007BF28CE40F947BF299CD88ED92EE62E068
:10EE20000F94F5F1772473948824992409C48FED05
:10EE300092EE62E00F94F5F140910A0250910B02BC
:10EE400060910C0270910D0282E020E10F9491F22A
:10EE500080910A0290910B02A0910C02B0910D02D8
:10EE600080509F4FAF4FBF4F80930A0290930B0289
:10EE7000A0930C02B0930D0269CD8AEE92EE62E08F
:10EE80000F94F5F184EE90EE60E00F94F5F18FECC5
:10EE900091EE60E00F94F5F1662477244301CC5D98
:10EEA000DE4F19821882C452D140D401C301B695F5
:10EEB000A79597958795CA5DDE4F88839983AA8326
:10EEC000BB83C652D140CC5DDE4FA881B981C4520C
:10EED000D1401196CC5DDE4FB983A883C452D14096
:10EEE000CD0162E070E00F9434F2B0E2B093C6005E
:10EEF0008091C00086FFFCCF8091C0008064809329
:10EF0000C000EDE2E093C6008091C00086FFFCCF18
:10EF10008091C00080648093C000F0E2F093C6004E
:10EF20008091C00086FFFCCF8091C00080648093F8
:10EF3000C000CA5DDE4FE880F9800A811B81C6529D
:10EF4000D140BB27A12F902F8F2D0F940DF2CA5DBA
:10EF5000DE4F8881C652D1400F940DF2B0E2FB2EF5
:10EF6000F092C6008091C00086FFFCCF8091C00067
:10EF700080648093C0000DE30093C6008091C000C0
:10EF800086FFFCCF8091C00080648093C00010E2B7
:10EF90001093C6008091C00086FFFCCF8091C00016
:10EFA00080648093C0008BBEF3012791C65DDE4F65
:10EFB0002883CA52D140A22EBB24CC24DD2408943D
:10EFC000611C711C811C911C8BBEF3018791282E42
:10EFD0003324442455240894611C711C811C911C09
:10EFE0008BBEF3013791C55DDE4F3883CB52D140E4
:10EFF0000894611C711C811C911C8BBEF30147910C
:10F00000C45DDE4F4883CC52D140ADEFEA2EAFEF66
:10F01000FA2EAFEF0A2FAFEF1A2F6E0C7F1C801E57
:10F02000911E142D032DF22CEE24EA0CFB1C0C1D5A
:10F030001D1D0F940DF220E22093C6008091C000A8
:10F0400086FFFCCF8091C00080648093C000C65DC5
:10F05000DE4F8881CA52D1400F940DF230E23093D6
:10F06000C6008091C00086FFFCCF8091C000806404
:10F070008093C000C45DDE4F8881CC52D1400F9494
:10F080000DF240E24093C6008091C00086FFFCCFA5
:10F090008091C00080648093C000C55DDE4F888190
:10F0A000CB52D1400F940DF250E25093C6008091A4
:10F0B000C00086FFFCCF8091C00080648093C000B8
:10F0C0008FEFE8168FEFF80680E0080780E018075A
:10F0D00031F484E092EE60E00F94C2F1DFC0D80119
:10F0E000C7018070907CA070B0708050904CA040A0
:10F0F000B040D1F52FEF3FE340E050E0E222F322B1
:10F1000004231523CA5DDE4FA880B980CA80DB8046
:10F11000C652D140AE0CBF1CC01ED11EAA0CBB1CD7
:10F12000CC1CDD1C8EE092EE60E00F94C2F1BB2798
:10F13000A12F902F8F2D0F940DF28E2D0F940DF285
:10F1400030E23093C6008091C00086FFFCCF8091F2
:10F15000C00080648093C0004EE34093C60080915D
:10F16000C00086FFFCCF87C08EE09EEFA0E0B0E03D
:10F17000E822F9220A231B239CE0E91694E9F90608
:10F1800090E0090790E0190709F088C0C45DDE4FE0
:10F19000A881CC52D140EA2EFF2400E010E0102FCD
:10F1A0000F2DFE2CEE24C55DDE4FB881CB52D14031
:10F1B000EB0EF11C011D111DD601C501817090706F
:10F1C000A070B070DC0199278827E80EF91E0A1F8D
:10F1D0001B1F20EF30E040E050E0A222B322C42207
:10F1E000D52241E1AA0CBB1CCC1CDD1C4A95D1F7F1
:10F1F000EA0CFB1C0C1D1D1D81E090E0A0E0B0E0BE
:10F20000282239224A225B2235E1220C331C441C7D
:10F21000551C3A95D1F7E20CF31C041D151D57013E
:10F220006801AA0CBB1CCC1CDD1C85E192EE60E0E1
:10F230000F94C2F1C801AA27BB270F940DF2BB2778
:10F24000A12F902F8F2D0F940DF28E2D0F940DF274
:10F2500090E29093C6008091C00086FFFCCF809121
:10F26000C00080648093C000AEE3A093C60080918C
:10F27000C00086FFFCCF8091C00080648093C000F6
:10F28000C601AA27BB270F940DF2BB27AD2D9C2DDD
:10F290008B2D0F940DF28A2D0F940DF20F94DCF14B
:10F2A000CC5DDE4FE881F981C452D140F99709F471
:10F2B0004DCBF4E0EF2EF12C012D112D6E0C7F1CA7
:10F2C000801E911EF2CD83E093EE62E00F94F5F183
:10F2D0008AE192EE60E00F94C2F18091C00087FF56
:10F2E000FCCF1091C6001F751093C6008091C0001E
:10F2F00086FFFCCF8091C00080648093C0000F9493
:10F30000DCF1812F81548A3108F036C1163409F4BA
:10F3100095C0173490F4133409F44EC0143430F40B
:10F320001134F1F0123409F01DC130C0143409F465
:10F3300059C0153409F016C16BC01A3409F4C4C0A1
:10F340001B3438F4173409F48FC0183409F00AC19B
:10F35000A1C01B3409F4D2C01C3409F003C1E8C0B9
:10F360008FEF81B90DC082B1809582B980E090E0C5
:10F37000E0EDF7E03197F1F70196883C9105C1F790
:10F380008091C00087FFEFCF12B8EFC08FEF84B934
:10F390000DC085B1809585B980E090E0E0EDF7E0A3
:10F3A0003197F1F70196883C9105C1F78091C00033
:10F3B00087FFEFCF15B8D9C08FEF87B90DC088B1DF
:10F3C000809588B980E090E0E0EDF7E03197F1F7C3
:10F3D0000196883C9105C1F78091C00087FFEFCF6F
:10F3E00018B8C3C08FEF8AB90DC08BB180958BB9A7
:10F3F00080E090E0E0EDF7E03197F1F70196883C8E
:10F400009105C1F78091C00087FFEFCF1BB8ADC059
:10F410008FEF8DB90DC08EB180958EB980E090E0F0
:10F42000E0EDF7E03197F1F70196883C9105C1F7DF
:10F430008091C00087FFEFCF1EB897C08FEF80BBD1
:10F440000DC081B3809581BB80E090E0E0EDF7E0F6
:10F450003197F1F70196883C9105C1F78091C00082
:10F4600087FFEFCF11BA81C08FEF83BB0DC084B38C
:10F47000809584BB80E090E0E0EDF7E03197F1F714
:10F480000196883C9105C1F78091C00087FFEFCFBE
:10F4900014BA6BC08FEF809301010FC080910201FD
:10F4A00080958093020180E090E0E0EDF7E03197F5
:10F4B000F1F70196883C9105C1F78091C00087FF64
:10F4C000EDCF1092020151C08FEF809304010FC065
:10F4D0008091050180958093050180E090E0E0ED4A
:10F4E000F7E03197F1F70196883C9105C1F78091DB
:10F4F000C00087FFEDCF1092050137C08FEF8093DA
:10F5000007010FC08091080180958093080180E079
:10F5100090E0E0EDF7E03197F1F70196883C910536
:10F52000C1F78091C00087FFEDCF109208011DC088
:10F530008FEF80930A010FC080910B01809580931B
:10F540000B0180E090E0E0EDF7E03197F1F70196F4
:10F55000883C9105C1F78091C00087FFEDCF1092E4
:10F560000B0103C085E292EEEEC98091C00087FFD7
:10F57000FCCF8091C600EAC988E392EEE4C98CE131
:10F5800091EEE1C988249924933011F1943028F444
:10F59000913089F09230B8F408C0953061F195301F
:10F5A000F0F0963009F048C043C02B3109F042C951
:10F5B00091E06BE13FC96227C15DDE4F2883CF52E6
:10F5C000D14092E037C9B22FA0E0622793E032C960
:10F5D000822F90E0A82BB92B622794E02BC92E3004
:10F5E00009F039C3622795E0C05DDE4F19821882A9
:10F5F000C053D1401FC9E1E0F0E0EC0FFD1FC05D3A
:10F60000DE4F08811981C053D140E00FF11F2083E4
:10F610000F5F1F4FC05DDE4F19830883C053D14079
:10F6200062270A171B0709F005C9D80196E002C92D
:10F63000261709F010C303C0973009F0FBC87724E0
:10F640009981933109F412C19431C8F4963009F4C8
:10F65000D8C0973050F4923009F406C1933009F4C1
:10F660006DC0913009F059C253C0913109F477C08F
:10F67000923108F0BBC0903109F04FC2F5C098310B
:10F6800009F487C0993150F4953109F4EFC09531F0
:10F6900008F4C6C1963109F040C2C2C19A3109F4DA
:10F6A0006CC09A3108F491C09B3109F45BC09D3164
:10F6B00009F033C29D81903359F48F81882311F46E
:10F6C0009EE11CC0813011F091E018C098E916C08D
:10F6D000892F807591F0903539F4E0E0F0E089E011
:10F6E0008093570094910AC0983539F4E3E0F0E034
:10F6F00089E080935700949101C090E01A821B82A8
:10F700008D818C831D829E831F8227E030E009C299
:10F710001A8288E08B8381E48C8386E58D8382E581
:10F720008E8389E48F8383E5888780E589878FE5E9
:10F730008A8782E38B872BE030E0F3C18A818139AD
:10F7400041F0823941F0803911F48FE005C080E04A
:10F7500003C082E001C08AE01A828B8344C0772410
:10F76000739482C08D81882311F48EE12CC0813086
:10F7700011F081E028C088E926C01A82E1E0F0E0BB
:10F7800089E08093570084918B831C8224E030E0D1
:10F79000C8C18B81803589F48C81883039F4E2E0EE
:10F7A000F0E089E08093570084910DC0E0E0F0E044
:10F7B00089E080935700849106C0E3E0F0E089E09F
:10F7C0008093570084911A82DFCF8D81836C99E0FA
:10F7D000E1E0F0E0082E90935700E89507B600FCB2
:10F7E000FDCF1A821B8223E030E09BC180EC8A832C
:10F7F000CE5CDE4F188219821A821B82C253D1401E
:10F800008EC18A8190E0A0E0B0E0582F44273327D2
:10F8100022278B8190E0A0E0B0E0DC0199278827C7
:10F82000282B392B4A2B5B2B8D8190E0A0E0B0E098
:10F83000282B392B4A2B5B2B8C8190E0A0E0B0E089
:10F84000BA2FA92F982F8827282B392B4A2B5B2BCF
:10F85000220F331F441F551FC05EDE4F288339839C
:10F860004A835B83C052D1401A8259C13A81C95C34
:10F87000DE4F3883C753D140CA5CDE4F1882C6536F
:10F88000D1408B81C82EDD24CA5CDE4F488159816E
:10F89000C653D140C42AD52A933109F082C0CE5C28
:10F8A000DE4F88819981AA81BB81C253D1408050AB
:10F8B000904CA340B04030F583E0CE5CDE4FE88052
:10F8C000F9800A811B81C253D140F70100935B008C
:10F8D00080935700E89507B600FCFDCFCE5CDE4F65
:10F8E000088119812A813B81C253D14000501F4FAA
:10F8F0002F4F3F4FCE5CDE4F088319832A833B8313
:10F90000C253D140C05EDE4F488159816A817B81FC
:10F91000C052D140DE011B9631E08C9111962C91A2
:10F9200011971296C75CDE4F2883C953D140C85C3B
:10F93000DE4F1882C853D14090E0C85CDE4FE881AA
:10F94000F981C853D1408E2B9F2B0C01FA01609393
:10F950005B0030935700E89511244E5F5F4F6F4F67
:10F960007F4F0EEFE02E0FEFF02ECE0CDF1CC114F8
:10F97000D10499F685E0C05EDE4F088119812A81A5
:10F980003B81C052D140F80120935B008093570027
:10F99000E89507B600FCFDCF81E180935700E8951C
:10F9A00035C0C05EDE4F88819981AA81BB81C0527B
:10F9B000D140B695A795979587957C018601ABE0D8
:10F9C000AA2EB12CAC0EBD1E0BC0D5016D915D01F0
:10F9D000C7010F947FFE0894E11CF11C01501040F8
:10F9E0000115110591F7A60160E070E0440F551F65
:10F9F000661F771FC05EDE4FE880F9800A811B8199
:10FA0000C052D1404E0D5F1D601F711F1A82C05E33
:10FA1000DE4F488359836A837B83C052D1407FC0C5
:10FA2000FA80C55CDE4FF882CB53D140C65CDE4F16
:10FA30001882CA53D1408B81C82EDD24C65CDE4FAC
:10FA400008811981CA53D140C02AD12A1A828981DA
:10FA5000BE016D5F7F4F843121F59601C05EDE4FA0
:10FA6000E880F9800A811B81C052D1400BBFF701A9
:10FA700087919691DB018C9311969C936E5F7F4FDB
:10FA8000D801C7010296A11DB11DC05EDE4F88835B
:10FA90009983AA83BB83C052D14022503040F1F6F3
:10FAA00036C0C05EDE4F288139814A815B81C052F9
:10FAB000D1400894C108D108760100E010E0089414
:10FAC000C11CD11C0894E11CF11C011D111DE20E8A
:10FAD000F31E041F151F21BDBB27A52F942F832FB5
:10FAE00082BD2F5F3F4F4F4F5F4FF89A80B5DB01CC
:10FAF0008D93BD012E153F054007510761F7C05E8C
:10FB0000DE4F288339834A835B83C052D1409601FC
:10FB10002D5F3F4FFB01108204C080EC8A8322E0FE
:10FB200030E08BE18093C6008091C00086FFFCCF5F
:10FB30008091C00080648093C000C15DDE4FF88179
:10FB4000CF52D140F093C6008091C00086FFFCCF19
:10FB50008091C00080648093C000432F3093C60022
:10FB60008091C00086FFFCCF8091C00080648093AC
:10FB7000C000922F2093C6008091C00086FFFCCF6A
:10FB80008091C00080648093C0008EE08093C600A6
:10FB90008091C00086FFFCCF8091C000806480937C
:10FBA000C00065E1C15DDE4FE880CF52D1406E25D7
:10FBB00069276427FE01319610C090819093C6009A
:10FBC0008091C00086FFFCCF31968091C000806498
:10FBD0008093C0006927215030402115310569F715
:10FBE0006093C6008091C00086FFFCCF8091C0006A
:10FBF00080648093C00085B1805885B9772081F4F6
:10FC0000C15DDE4F0881CF52D1400F5FC15DDE4F35
:10FC10000883CF52D14090E0A0E0B0E00D941AF4F8
:10FC200027982F9880E090E020ED37E0F901319798
:10FC3000F1F7019684369105C9F700008091C00064
:10FC40008D7F8093C00081E180935700E895EE2777
:10FC5000FF270994FFCF90E00D941AF497FB092E2B
:10FC600007260AD077FD04D02ED006D000201AF443
:10FC7000709561957F4F0895F6F7909581959F4F08
:10FC80000895A1E21A2EAA1BBB1BFD010DC0AA1FDD
:10FC9000BB1FEE1FFF1FA217B307E407F50720F0F5
:10FCA000A21BB30BE40BF50B661F771F881F991F70
:10FCB0001A9469F760957095809590959B01AC01B9
:10FCC000BD01CF010895AA1BBB1B51E107C0AA1FAC
:10FCD000BB1FA617B70710F0A61BB70B881F991FED
:10FCE0005A95A9F780959095BC01CD010895F99991
:10FCF000FECF92BD81BDF89A992780B50895262F31
:10FD0000F999FECF1FBA92BD81BD20BD0FB6F89400
:0EFD1000FA9AF99A0FBE01960895F894FFCF63
:040000033000E000E9
:00000001FF
