:1000000072C000009FC000009DC000009BC00000A7
:1000100099C0000097C0000095C0000093C0000088
:1000200091C000008FC000008DC000008BC0000098
:1000300089C0000087C0000085C0000083C00000A8
:1000400081C000007FC000007DC000007BC00000B8
:1000500079C0000077C0000075C00000E9C2000050
:1000600071C000006FC000006DC000006BC00000D8
:1000700069C0000067C0000065C0000063C00000E8
:1000800061C000005FC000005DC000005BC00000F8
:1000900042C3000017C3000055C0000053C0000059
:1000A00051C000004FC000004DC000004BC0000018
:1000B00049C0000047C0000045C0000043C0000028
:1000C00041C000003FC000003DC000003BC0000038
:1000D00039C0000037C0000035C0000033C0000048
:1000E00031C000007A0711241FBECFEFD1E2DEBF7E
:1000F000CDBF00E00CBF23E0AAE7B2E001C01D9233
:10010000AA32B207E1F712E0A0E0B2E0E6E9F7E1D7
:1001100000E00BBF02C007900D92AA37B107D9F7D4
:1001200010E0C3E7D0E000E005C021970109802F6F
:10013000FE0118D7C237D10780E00807B1F721D3F5
:100140000C94C90B5DCFCF92DF92EF92FF920F9389
:100150001F93CF93DF936C017A018B01C0E0D0E055
:10016000CE15DF0581F0D8016D918D01D601ED919D
:10017000FC910190F081E02DC6011995892B11F0B9
:100180002196EECF7E01C701DF91CF911F910F9194
:10019000FF90EF90DF90CF900895089580E090E079
:1001A0000895FC01538D448D252F30E0842F90E07D
:1001B000821B930B541710F0CF9608950197089562
:1001C000FC01918D828D981761F0828DDF01A80F5F
:1001D000B11D5D968C91928D9F5F9F73928F90E081
:1001E00008958FEF9FEF0895FC01918D828D9817F0
:1001F00031F0828DE80FF11D858D90E008958FEF2D
:100200009FEF0895FC01918D228D892F90E0805CF5
:100210009F4F821B91098F739927089580E892E080
:10022000F1DF21E0892B09F420E0822F0895FC0101
:10023000848DDF01A80FB11DA35ABF4F2C91848D6F
:1002400090E001968F739927848FA689B7892C93A4
:10025000A089B1898C91837080648C93938D848DF7
:10026000981306C00288F389E02D80818F7D8083FA
:100270000895EF92FF920F931F93CF93DF93EC01BA
:1002800081E0888F9B8D8C8D981305C0E889F98952
:10029000808185FD25C0F62E0B8D10E00F5F1F4F6E
:1002A0000F731127E02E8C8DE8120BC00FB607FCE0
:1002B000FACFE889F989808185FFF5CFCE01B7DFD4
:1002C000F2CF8B8DFE01E80FF11DE35AFF4FF08254
:1002D0009FB7F8940B8FEA89FB89808180620AC0FE
:1002E0009FB7F894EE89FF896083E889F989808156
:1002F0008370806480839FBF81E090E0DF91CF9125
:100300001F910F91FF90EF900895CF93DF93EC0131
:10031000888D8823C1F0EA89FB89808185FD05C02D
:10032000A889B9898C9186FD0EC00FB607FCF5CF60
:10033000808185FFF2CFA889B9898C9185FFEDCFA7
:10034000CE0175DFE8CFDF91CF91089580E090E096
:10035000892B41F080E090E0892B21F00E94000081
:10036000811120C080E090E0892B19F057DF8111C6
:100370001CC080E090E0892B41F080E090E0892B68
:1003800021F00E940000811113C080E090E0892BD1
:10039000A1F080E090E0892B81F00E9400008111A3
:1003A0000AC008950E940000DDCF0E940000E1CF46
:1003B0000E940000EACF0C9400000895CF93DF93D1
:1003C000009739F0FC01D581C6816CD68D2F9C2F0A
:1003D000F7CFDF91CF9108950F931F93CF93DF93C2
:1003E0008C0188E090E0C6D5EC011D821C821F8242
:1003F0001E820115110529F4198218821B821A82A6
:1004000006C0C801B7D5998388831B830A83CE01B0
:10041000DF91CF911F910F9108956F927F928F92EC
:100420009F92AF92BF92CF92DF92EF92FF920F9383
:100430001F93CF93DF93EC015A01390161307105AD
:1004400019F48A849B8401C04C018114910439F40D
:100450008EE090E08FD5FC019B878A8712C0D40183
:1004600018968D919C911997009711F04C01F7CF38
:100470008EE090E07FD5FC01D40119969C938E9379
:1004800018971186108613861286B182A082738215
:10049000628215830483F782E682D586C486CF0103
:1004A000DF91CF911F910F91FF90EF90DF90CF9050
:1004B000BF90AF909F908F907F906F900895CF9353
:1004C000DF93CB017BDF8DE090E086DFEC0168E11C
:1004D00072E0888199817BD68A819B8101979B8379
:1004E0008A83CE01DF91CF910895CF92DF92EF9270
:1004F000FF920F931F93CF93DF938C016B0180E0EA
:1005000090E06ADF7C01FC0115821482F801C2814F
:10051000D381209789F488E090E02CD5EC0189E024
:1005200090E028D59B838A8365E272E050D688E00C
:1005300090E09D838C8309C08E819F81F801938315
:100540008283892B11F4158214828A819B81F701A1
:10055000918380838C819D8193838283C6012EDF6A
:10056000CE01A0D5C701DF91CF911F910F91FF90D0
:10057000EF90DF90CF900895CF93DF93CB011EDFF4
:1005800084E190E029DFEC0180E48F9389E48F938C
:100590008FE08F938CED8F938EE292E09F938F93F9
:1005A00089818F9388818F9319D69B838A838DB796
:1005B0009EB708960FB6F8949EBF0FBE8DBFCE01B2
:1005C000DF91CF910895F7D5AF92BF92CF92DF928E
:1005D000EF92FF920F931F93CF93DF937C015A0109
:1005E000EB018C01C8018E199F098A159B059CF4AB
:1005F000F80181918F01082E000C990BE0D56C0158
:100600008991082E000C990BDAD5C816D90651F33A
:1006100080E090E002C081E090E0DF91CF911F91F7
:100620000F91FF90EF90DF90CF90BF90AF90089523
:100630001F920F920FB60F9211242F933F938F9317
:100640009F93AF93BF938091220390912303A09136
:100650002403B09125033091210323E0230F2D378C
:1006600020F40196A11DB11D05C026E8230F0296B6
:10067000A11DB11D20932103809322039093230396
:10068000A0932403B093250380911D0390911E0332
:10069000A0911F03B09120030196A11DB11D80936D
:1006A0001D0390931E03A0931F03B0932003BF91DB
:1006B000AF919F918F913F912F910F900FBE0F900F
:1006C0001F9018951F920F920FB60F9211240BB620
:1006D0000F922F933F934F935F936F937F938F93DB
:1006E0009F93AF93BF93EF93FF9380E892E09FDDDA
:1006F000FF91EF91BF91AF919F918F917F916F91FA
:100700005F914F913F912F910F900BBE0F900FBEB5
:100710000F901F9018951F920F920FB60F921124F1
:100720000BB60F922F938F939F93EF93FF93E091CC
:100730009002F09191028081E0919602F0919702EF
:1007400082FD12C09081809199028F5F8F732091FA
:100750009A02821751F0E0919902F0E0E058FD4FC3
:10076000958F8093990201C08081FF91EF919F91B5
:100770008F912F910F900BBE0F900FBE0F901F9077
:100780001895CF93DF93CDB7DEB7C351D1400FB6E5
:10079000F894DEBF0FBECDBF789484B5826084BD6F
:1007A00084B5816084BD85B5826085BD85B5816075
:1007B00085BD80916E00816080936E0010928100F3
:1007C00080918100826080938100809181008160AE
:1007D000809381008091800081608093800080916F
:1007E000B10084608093B1008091B00081608093FB
:1007F000B00080919100826080939100809191007F
:10080000816080939100809190008160809390003E
:100810008091A10082608093A1008091A1008160FD
:100820008093A1008091A00081608093A0008091BE
:100830002101826080932101809121018160809358
:1008400021018091200181608093200180917A00B4
:10085000846080937A0080917A00826080937A002D
:1008600080917A00816080937A0080917A0080681C
:1008700080937A001092C1008EE090E07BD3FC015F
:1008800090937B0280937A021182108213821282EB
:100890001582148217821682158614861186108698
:1008A00013861286C12CD12C24E0E22EF12C0CE30D
:1008B00012E026E030E041E452E061E070E0ADDDBE
:1008C0005C0133E0E32EF12C08E412E025E030E097
:1008D0004CE452E061E070E0A0DD4C0145E7C42E3D
:1008E00042E0D42E54E0E52EF12C02E512E026E0A1
:1008F00030E047E552E061E070E0C5018EDD65E083
:10090000E62EF12C0EE512E025E030E0A80161E0D2
:1009100070E0C40182DD10927D0210927C02109280
:100920007F0210927E027FE5C72E72E0D72E04E68A
:1009300012E025E030E0A80160E070E080917A02EA
:1009400090917B026ADDECEBCE2EE2E0DE2E0AE631
:1009500012E029E030E040E752E061E070E0809191
:100960007A0290917B0259DDE0919002F091910220
:1009700082E08083E0918C02F0918D021082E09100
:100980008E02F0918F028FEC808310929802E0919A
:100990009402F091950286E08083E0919202F091BA
:1009A0009302808180618083E0919202F0919302B2
:1009B000808188608083E0919202F091930280812F
:1009C00080688083E0919202F091930280818F7D14
:1009D00080839E012F5F3F4FCD5FDE4F3983288399
:1009E000C350D1408901E12CF12C2FB7F8948091AC
:1009F000220390912303A0912403B09125032FBFDC
:100A00008093880290938902A0938A02B0938B020C
:100A100080E892E0D5DB97FF25C02FB7F89480914E
:100A2000220390912303A0912403B09125032FBFAB
:100A3000409188025091890260918A0270918B02E4
:100A4000841B950BA60BB70B409184025091850235
:100A5000609186027091870284179507A607B707F1
:100A6000B8F20EC08A30910559F0D8018D938D01EE
:100A7000BFEFEB1AFB0AE114E1E0FE0609F0B5CF87
:100A8000EE2009F4A6CF97013327C85FDE4F3983E4
:100A90002883C850D140412C512C20E030E0212C3B
:100AA000312CC85FDE4F88819981C850D1400197B1
:100AB000C05FDE4F99838883C051D140C85FDE4F4D
:100AC000A881B981C850D1402A163B0621F4F20111
:100AD00080E090E0C2C1CD5FDE4FE881F981C35074
:100AE000D1408191CD5FDE4FF983E883C350D1407F
:100AF0008B3351F0C05FDE4F88819981C051D14066
:100B00008215930509F09DC18101021B130BC05F83
:100B1000DE4FA881B981C051D1402A163B0611F49D
:100B20000F5F1F4FC65FDE4F19830883CA50D14045
:100B3000E1E0F0E0EC0FFD1FE20FF31FCF5FDE4FAF
:100B4000F983E883C150D140C45FDE4FF983E88365
:100B5000CC50D140612C712CA12CB12CCA5FDE4F3E
:100B60001882C650D140C95FDE4F1882C750D140AD
:100B7000C12CD12C980121503109C25FDE4F39833D
:100B80002883CE50D1400C151D0509F46EC0C45FFA
:100B9000DE4FA881B981CC50D140ED91C45FDE4FCA
:100BA000B983A883CC50D140CB5FDE4FE883C550DA
:100BB000D140EA3361F0E03251F0C25FDE4F28816C
:100BC0003981CE50D1402C153D0509F048C0460171
:100BD00086189708C25FDE4F88819981CE50D14038
:100BE0008C159D0519F49FEF891A990A87E090E00A
:100BF000C1D17C01DC011C92CF5FDE4FE881F9811D
:100C0000C150D1406E0E7F1E12967C926E9211974B
:100C100014969C928E92139716961C921E9215977C
:100C2000A114B10431F0D50116969C938E931597BB
:100C30000AC0CA5FDE4F8883C650D140C95FDE4F0D
:100C4000F882C750D1403601BFEF6B1A7B0ACB5FE9
:100C5000DE4FE881C550D140E03211F408C0750183
:100C6000FFEFCF1ADF0A57018ECF750101C0860151
:100C70000F5F1F4FCF5FDE4F88809980C150D140FA
:100C8000800E911ECC24CA94DC2CC65FDE4FA88057
:100C9000B980CA50D14021E0A21AB108C65FDE4F28
:100CA00088819981CA50D1400817190708F03EC0C1
:100CB0009FEFC916D90649F4D4018C91082E000C77
:100CC000990B45D1892B09F46801F40181914F01F9
:100CD0008C3219F00A151B0531F587E090E04AD1F6
:100CE000FC0121E02083CF5FDE4F88819981C150D4
:100CF000D1408C0D9D1D92838183C8018C199D0963
:100D000094838383168215820A151B0519F40196B4
:100D100094838383D7011696FC93EE9315977F01F6
:100D2000CC24CA94DC2C0F5F1F4FB8CFE0907A021E
:100D3000F0907B02CA5FDE4F0881C650D140C95F88
:100D4000DE4F1881C750D1400115110589F1F80116
:100D5000808181112DC0E114F10451F1D801139665
:100D6000CD90DC901497F70182819381C816D90643
:100D700051F460817181A60111968D919C91129719
:100D800023DC892B01F5D70116968D919C9117973D
:100D9000C816D90609F092C014966D917C911597EA
:100DA000A601F801818192810FDC892B61F486C054
:100DB00080E090E011DBEFEFFFEFDC011596FC9394
:100DC000EE93149717C0F8010581168101151105DE
:100DD00009F07AC0D7011C96ED91FC911D973097D0
:100DE00009F07AC080E090E0F7DA2EEF3FEFFC01E7
:100DF00035832483009751F480E090E0EDDAECEF46
:100E0000FFEFDC011596FC93EE9314974114510407
:100E100059F0CE5EDE4FA881B981C251D1401796FC
:100E20009C938E93169701C02C01FC0117821682A9
:100E300091012F5F3F4FCE5EDE4F99838883C25171
:100E4000D140FFEF2F1A3F0A39CE22813381232B65
:100E500009F001960680F781E02D3097B1F7892BD4
:100E6000F9F0820101151105D9F0D80112964D91C2
:100E70005C9113976D917C9180E892E064D9F801C0
:100E800086819781892B11F06BE301C06AE080E8CD
:100E900092E0EFD9D80116960D911C911797E2CFE9
:100EA0004114510409F495CDF20106811781808126
:100EB0009181F8D0C201F6D02801F2CFD70118965F
:100EC000ED90FC90199747CFD8018C91811182CF7A
:100ED000F701E284F38438CFCA5FDE4F6881C650E1
:100EE000D140C95FDE4F7881C750D1408AE792E098
:100EF000199580CFE0E8F2E01382128288EE93E049
:100F0000A0E0B0E084839583A683B7838AE092E073
:100F1000918380838DEC90E0958784878CEC90E0C2
:100F20009787868788EC90E0918B808B89EC90E0A6
:100F3000938B828B8AEC90E0958B848B8EEC90E087
:100F4000978B868B118E128E138E148E08959111AD
:100F500006C0803219F089508550D0F7089599273E
:100F600088270895EE0FFF1F881F8BBF0790F6910B
:100F7000E02D19940F931F93CF93DF938230910547
:100F800010F482E090E0E0912803F091290320E042
:100F900030E0A0E0B0E0309719F14081518102814A
:100FA000138148175907C8F08417950769F41097FB
:100FB00031F012960C93129713961C9327C000934E
:100FC00028031093290322C02115310519F0421777
:100FD000530718F49A01BD01EF01DF01F801DBCFDF
:100FE00021153105F9F0281B390B2430310580F427
:100FF0008A819B816115710521F0FB0193838283B6
:1010000004C09093290380932803FE01329644C0C4
:10101000FE01E20FF31F819391932250310939832E
:1010200028833AC02091260330912703232B41F4D3
:10103000209102023091030230932703209326036C
:1010400020910002309101022115310541F42DB7A4
:101050003EB74091040250910502241B350BE091EC
:101060002603F0912703E217F307A0F42E1B3F0B92
:101070002817390778F0AC014E5F5F4F241735070A
:1010800048F04E0F5F1F5093270340932603819330
:10109000919302C0E0E0F0E0CF01DF91CF911F918A
:1010A0000F910895CF93DF93009709F481C0FC015D
:1010B000329713821282A0912803B09129031097CE
:1010C00081F420813181820F931F2091260330917A
:1010D00027032817390751F5F0932703E0932603D8
:1010E00067C0ED0120E030E0CE17DF0740F44A8111
:1010F0005B819E0141155105F1F0EA01F5CFD383E3
:10110000C28340815181840F951FC817D90759F4B4
:1011100088819981840F951F0296918380838A81AB
:101120009B81938382832115310529F4F093290350
:10113000E09328033DC0E901FB83EA83499159917B
:10114000C40FD51FEC17FD0761F480819181840FD6
:10115000951F0296E90199838883828193819B83FD
:101160008A83E0E0F0E012968D919C9113970097AE
:1011700019F0FD01DC01F7CF8D919C9111979D0134
:101180002E5F3F4F820F931F20912603309127033C
:101190002817390769F4309729F41092290310921F
:1011A000280302C013821282B0932703A093260360
:1011B000DF91CF91089581E090E0F894EAC2911117
:1011C000089581568A5108F4805285580895FB018C
:1011D000DC0101900D920020E1F708950F931F9319
:1011E000CF93DF93CDB7DEB72E970FB6F894DEBF5F
:1011F0000FBECDBF0E891F8986E08C831A830983B9
:101200008FEF9FE79E838D83AE01465E5F4F688DB3
:10121000798DCE01019610D0EF81F885E00FF11F96
:1012200010822E960FB6F894DEBF0FBECDBFDF91B1
:10123000CF911F910F9108952F923F924F925F92FD
:101240006F927F928F929F92AF92BF92CF92DF92D6
:10125000EF92FF920F931F93CF93DF93CDB7DEB73B
:101260002B970FB6F894DEBF0FBECDBF6C017B018C
:101270008A01FC0117821682838181FFBFC1CE01E2
:1012800001963C01F6019381F70193FD859193FF4F
:1012900081917F01882309F4ADC1853239F493FD32
:1012A000859193FF81917F01853221F4B60190E011
:1012B000D6D1E8CF912C212C312CFFE1F315D8F0B9
:1012C0008B3279F038F4803279F08332A1F4232D17
:1012D00020611DC08D3261F0803369F4232D2160BF
:1012E00016C0832D8260382EE32DE4603E2E2AC086
:1012F000F32DF8601DC037FC2DC020ED280F2A30DB
:1013000040F08E32B9F436FC75C1232D2064322EA4
:1013100019C036FE06C08AE0989E200D1124922E38
:1013200011C0EAE02E9E200D1124222EF32DF06232
:101330003F2E08C08C3621F4832D8068382E02C0E1
:10134000883641F4F70193FD859193FF81917F01E8
:101350008111B3CF982F9F7D9554933028F40C5F63
:101360001F4F9FE399830DC0833631F0833771F0AF
:10137000833509F055C020C0F801808189830E5F54
:101380001F4F88248394912C530112C02801F2E04E
:101390004F0E511CF801A080B18036FE03C0692DAC
:1013A00070E002C06FEF7FEFC5014ED14C018201AA
:1013B000F32DFF773F2E15C0280122E0420E511C6D
:1013C000F801A080B18036FE03C0692D70E002C034
:1013D0006FEF7FEFC5012DD14C01F32DF0683F2E4B
:1013E000820133FC19C0822D90E088169906A0F482
:1013F000B60180E290E033D12A94F5CFF50137FCB5
:10140000859137FE81915F01B60190E028D12110CE
:101410002A9421E0821A91088114910479F7E1C09D
:10142000843611F0893639F5F80137FE07C060813E
:101430007181828193810C5F1F4F08C0608171812F
:10144000072E000C880B990B0E5F1F4FF32DFF76B4
:101450003F2E97FF09C090958095709561957F4FBD
:101460008F4F9F4FF0683F2E2AE030E0A30133D129
:10147000882E861844C0853731F4232D2F7EB22E56
:101480002AE030E025C0932D997FB92E8F36C1F028
:1014900018F4883579F0AEC0803719F0883721F01C
:1014A000A9C0E92FE061BE2EB4FE0DC0FB2DF46093
:1014B000BF2E09C034FE0AC0292F2660B22E06C0F6
:1014C00028E030E005C020E130E002C020E132E059
:1014D000F801B7FE07C060817181828193810C5F42
:1014E0001F4F06C06081718180E090E00E5F1F4F4A
:1014F000A301F1D0882E8618FB2DFF773F2E36FEF4
:101500000DC0232D2E7FA22E891458F434FE0BC05B
:1015100032FC09C0832D8E7EA82E05C0B82CA32CCA
:1015200003C0B82C01C0B92CA4FE0FC0FE01E80D09
:10153000F11D8081803321F49A2D997EA92E09C056
:10154000A2FE06C0B394B39404C08A2D867809F035
:10155000B394A3FC10C0A0FE06C0B21480F4280C03
:10156000922C9B180DC0B21458F4B60180E290E0A2
:1015700076D0B394F8CFB21418F42B1802C0982C7C
:10158000212CA4FE0FC0B60180E390E068D0A2FE3B
:1015900016C0A1FC03C088E790E002C088E590E097
:1015A000B6010CC08A2D867851F0A1FE02C08BE2F4
:1015B00001C080E2A7FC8DE2B60190E050D0891412
:1015C00030F4B60180E390E04AD09A94F8CF8A9440
:1015D000F301E80DF11D8081B60190E040D081104B
:1015E000F6CF222009F44ECEB60180E290E037D04B
:1015F0002A94F7CFF6018681978102C08FEF9FEF83
:101600002B960FB6F894DEBF0FBECDBFDF91CF9102
:101610001F910F91FF90EF90DF90CF90BF90AF9010
:101620009F908F907F906F905F904F903F902F9002
:101630000895FC010590615070400110D8F7809525
:1016400090958E0F9F1F0895FC016150704001908E
:101650000110D8F7809590958E0F9F1F08950F93D6
:101660001F93CF93DF93FB01238121FD03C08FEFF5
:101670009FEF2CC022FF16C04681578124813581FF
:101680004217530744F4A081B1819D012F5F3F4F62
:10169000318320838C93268137812F5F3F4F37839F
:1016A000268314C08B01EC01FB010084F185E02D41
:1016B0001995892BE1F6D80116968D919C91179773
:1016C000019617969C938E931697CE01DF91CF913A
:1016D0001F910F910895FA01AA27283051F1203166
:1016E00081F1E8946F936E7F6E5F7F4F8F4F9F4FB6
:1016F000AF4FB1E03ED0B4E03CD0670F781F891FF8
:101700009A1FA11D680F791F8A1F911DA11D6A0FC5
:10171000711D811D911DA11D20D009F468943F9178
:101720002AE0269F11243019305D3193DEF6CF0177
:101730000895462F4770405D4193B3E00FD0C9F73D
:10174000F6CF462F4F70405D4A3318F0495D31FDAA
:101750004052419302D0A9F7EACFB4E0A6959795FD
:10176000879577956795BA95C9F7009761057105D3
:1017700008959B01AC010A2E06945795479537951D
:101780002795BA95C9F7620F731F841F951FA01D77
:061790000895F894FFCF5C
:1017960000002A038000000000003901A300D100E8
:1017A60085010201E000F40049444E207265737021
:1017B6006F6E7365004E6F206572726F72005072A5
:1017C600657373757265203D202566005359535421
:1017D6000053595354454D00455252004552524FFD
:1017E60052004552523F004552524F523F004E451D
:1017F60058543F002A49444E3F00505245533F003B
:0A18060050524553535552453F0020
:00000001FF
